{
  "transactions": [
    {
      "hash": "0x8e0d93ca33c00ae8661bc9a8609e397db40f3702a3fe3a3de715b7be86682f15",
      "transactionType": "CALL",
      "contractName": "OrgsManager",
      "contractAddress": "0xB3730Ba12699f82f3E29adB2907634b9a3D072C6",
      "function": "createMember(bytes32,string)",
      "arguments": [
        "0x0000000000000000000000000000000000000000000000000000000000000001",
        "\"Alice\""
      ],
      "transaction": {
        "type": "0x02",
        "from": "0x0bd654d08c5e0e5646096957acf5f8fb186f58bd",
        "to": "0xb3730ba12699f82f3e29adb2907634b9a3d072c6",
        "gas": "0x1edfd",
        "value": "0x0",
        "data": "0x5115f487000000000000000000000000000000000000000000000000000000000000000100000000000000000000000000000000000000000000000000000000000000400000000000000000000000000000000000000000000000000000000000000005416c696365000000000000000000000000000000000000000000000000000000",
        "nonce": "0x10c",
        "accessList": []
      },
      "additionalContracts": [],
      "isFixedGasLimit": false
    },
    {
      "hash": "0x9f92ecad6c9bf2661a0c0541aa11fe41ce11424db79e6eb8ad5dc8063e03c6d6",
      "transactionType": "CALL",
      "contractName": "OrgsManager",
      "contractAddress": "0xB3730Ba12699f82f3E29adB2907634b9a3D072C6",
      "function": "createOrganization(bytes32,string)",
      "arguments": [
        "0x000000000000000000000000000000000000000000000000000000000000000a",
        "\"Alice's Org\""
      ],
      "transaction": {
        "type": "0x02",
        "from": "0x0bd654d08c5e0e5646096957acf5f8fb186f58bd",
        "to": "0xb3730ba12699f82f3e29adb2907634b9a3d072c6",
        "gas": "0x1eeb2",
        "value": "0x0",
        "data": "0xcf06b552000000000000000000000000000000000000000000000000000000000000000a0000000000000000000000000000000000000000000000000000000000000040000000000000000000000000000000000000000000000000000000000000000b416c6963652773204f7267000000000000000000000000000000000000000000",
        "nonce": "0x10d",
        "accessList": []
      },
      "additionalContracts": [],
      "isFixedGasLimit": false
    },
    {
      "hash": "0x49923ac907af627a813ddfb440f4d976ff21d9f33e36f259b2b5503c15f5ec25",
      "transactionType": "CALL",
      "contractName": "OrgsManager",
      "contractAddress": "0xB3730Ba12699f82f3E29adB2907634b9a3D072C6",
      "function": "createMember(bytes32,string)",
      "arguments": [
        "0x0000000000000000000000000000000000000000000000000000000000000002",
        "\"Bob\""
      ],
      "transaction": {
        "type": "0x02",
        "from": "0x26750470f82ba05892fb0088ebe48b1e19d30514",
        "to": "0xb3730ba12699f82f3e29adb2907634b9a3d072c6",
        "gas": "0x1eddb",
        "value": "0x0",
        "data": "0x5115f487000000000000000000000000000000000000000000000000000000000000000200000000000000000000000000000000000000000000000000000000000000400000000000000000000000000000000000000000000000000000000000000003426f620000000000000000000000000000000000000000000000000000000000",
        "nonce": "0xcb",
        "accessList": []
      },
      "additionalContracts": [],
      "isFixedGasLimit": false
    },
    {
      "hash": "0x335dc10b12d05e925d4c638be0635e18609b7ebe8afe032bdf071262232f5fca",
      "transactionType": "CALL",
      "contractName": "OrgsManager",
      "contractAddress": "0xB3730Ba12699f82f3E29adB2907634b9a3D072C6",
      "function": "createOrganization(bytes32,string)",
      "arguments": [
        "0x0000000000000000000000000000000000000000000000000000000000000014",
        "\"Bob's Org\""
      ],
      "transaction": {
        "type": "0x02",
        "from": "0x26750470f82ba05892fb0088ebe48b1e19d30514",
        "to": "0xb3730ba12699f82f3e29adb2907634b9a3d072c6",
        "gas": "0x1ee90",
        "value": "0x0",
        "data": "0xcf06b552000000000000000000000000000000000000000000000000000000000000001400000000000000000000000000000000000000000000000000000000000000400000000000000000000000000000000000000000000000000000000000000009426f622773204f72670000000000000000000000000000000000000000000000",
        "nonce": "0xcc",
        "accessList": []
      },
      "additionalContracts": [],
      "isFixedGasLimit": false
    },
    {
      "hash": "0xf2900140891a5b5ac82b327ab24cef06afcbf8c0a6e3db790f8fa846b12a1c8d",
      "transactionType": "CALL",
      "contractName": "OrgsManager",
      "contractAddress": "0xB3730Ba12699f82f3E29adB2907634b9a3D072C6",
      "function": "createMember(bytes32,string)",
      "arguments": [
        "0x0000000000000000000000000000000000000000000000000000000000000003",
        "\"Charlie\""
      ],
      "transaction": {
        "type": "0x02",
        "from": "0xd3cb539dbe80cfaedfe6411727ff2d3d9953ee36",
        "to": "0xb3730ba12699f82f3e29adb2907634b9a3d072c6",
        "gas": "0x1ee1d",
        "value": "0x0",
        "data": "0x5115f487000000000000000000000000000000000000000000000000000000000000000300000000000000000000000000000000000000000000000000000000000000400000000000000000000000000000000000000000000000000000000000000007436861726c696500000000000000000000000000000000000000000000000000",
        "nonce": "0x33",
        "accessList": []
      },
      "additionalContracts": [],
      "isFixedGasLimit": false
    },
    {
      "hash": "0xf4c4891b4172ffa197a56f63c014fdc7e0212f8b7fb2f08fe67158259f781a43",
      "transactionType": "CALL",
      "contractName": "OrgsManager",
      "contractAddress": "0xB3730Ba12699f82f3E29adB2907634b9a3D072C6",
      "function": "createOrganization(bytes32,string)",
      "arguments": [
        "0x000000000000000000000000000000000000000000000000000000000000001e",
        "\"Charlie's Org\""
      ],
      "transaction": {
        "type": "0x02",
        "from": "0xd3cb539dbe80cfaedfe6411727ff2d3d9953ee36",
        "to": "0xb3730ba12699f82f3e29adb2907634b9a3d072c6",
        "gas": "0x1eed2",
        "value": "0x0",
        "data": "0xcf06b552000000000000000000000000000000000000000000000000000000000000001e0000000000000000000000000000000000000000000000000000000000000040000000000000000000000000000000000000000000000000000000000000000d436861726c69652773204f726700000000000000000000000000000000000000",
        "nonce": "0x34",
        "accessList": []
      },
      "additionalContracts": [],
      "isFixedGasLimit": false
    },
    {
      "hash": "0x5c8069a00f4168fb8645ca9fb8228a70c8b097dcf6de4ec26e912507c06fa08a",
      "transactionType": "CALL",
      "contractName": "OrgsManager",
      "contractAddress": "0xB3730Ba12699f82f3E29adB2907634b9a3D072C6",
      "function": "joinOrganization(bytes32,bytes32)",
      "arguments": [
        "0x0000000000000000000000000000000000000000000000000000000000000014",
        "0x0000000000000000000000000000000000000000000000000000000000000001"
      ],
      "transaction": {
        "type": "0x02",
        "from": "0x0bd654d08c5e0e5646096957acf5f8fb186f58bd",
        "to": "0xb3730ba12699f82f3e29adb2907634b9a3d072c6",
        "gas": "0x9e3d",
        "value": "0x0",
        "data": "0x2d20620900000000000000000000000000000000000000000000000000000000000000140000000000000000000000000000000000000000000000000000000000000001",
        "nonce": "0x10e",
        "accessList": []
      },
      "additionalContracts": [],
      "isFixedGasLimit": false
    },
    {
      "hash": "0x8b4055a15f5fcd5ecfd7b65b1607e63f09c81b6569bdb3e8324a219f371053fe",
      "transactionType": "CALL",
      "contractName": "OrgsManager",
      "contractAddress": "0xB3730Ba12699f82f3E29adB2907634b9a3D072C6",
      "function": "joinOrganization(bytes32,bytes32)",
      "arguments": [
        "0x000000000000000000000000000000000000000000000000000000000000001e",
        "0x0000000000000000000000000000000000000000000000000000000000000001"
      ],
      "transaction": {
        "type": "0x02",
        "from": "0x0bd654d08c5e0e5646096957acf5f8fb186f58bd",
        "to": "0xb3730ba12699f82f3e29adb2907634b9a3d072c6",
        "gas": "0x9e3d",
        "value": "0x0",
        "data": "0x2d206209000000000000000000000000000000000000000000000000000000000000001e0000000000000000000000000000000000000000000000000000000000000001",
        "nonce": "0x10f",
        "accessList": []
      },
      "additionalContracts": [],
      "isFixedGasLimit": false
    },
    {
      "hash": "0xc95ef368b208627315343131e88c07e5fa40907cc452ea77232a0594879b632b",
      "transactionType": "CALL",
      "contractName": "OrgsManager",
      "contractAddress": "0xB3730Ba12699f82f3E29adB2907634b9a3D072C6",
      "function": "joinOrganization(bytes32,bytes32)",
      "arguments": [
        "0x000000000000000000000000000000000000000000000000000000000000000a",
        "0x0000000000000000000000000000000000000000000000000000000000000002"
      ],
      "transaction": {
        "type": "0x02",
        "from": "0x26750470f82ba05892fb0088ebe48b1e19d30514",
        "to": "0xb3730ba12699f82f3e29adb2907634b9a3d072c6",
        "gas": "0x9e3d",
        "value": "0x0",
        "data": "0x2d206209000000000000000000000000000000000000000000000000000000000000000a0000000000000000000000000000000000000000000000000000000000000002",
        "nonce": "0xcd",
        "accessList": []
      },
      "additionalContracts": [],
      "isFixedGasLimit": false
    },
    {
      "hash": "0xfeb866c1242cb10d9bc35e6642cdab201e701de5ca3a0c2a1948c9d4f0c3d6d2",
      "transactionType": "CALL",
      "contractName": "OrgsManager",
      "contractAddress": "0xB3730Ba12699f82f3E29adB2907634b9a3D072C6",
      "function": "joinOrganization(bytes32,bytes32)",
      "arguments": [
        "0x000000000000000000000000000000000000000000000000000000000000001e",
        "0x0000000000000000000000000000000000000000000000000000000000000002"
      ],
      "transaction": {
        "type": "0x02",
        "from": "0x26750470f82ba05892fb0088ebe48b1e19d30514",
        "to": "0xb3730ba12699f82f3e29adb2907634b9a3d072c6",
        "gas": "0x9e3d",
        "value": "0x0",
        "data": "0x2d206209000000000000000000000000000000000000000000000000000000000000001e0000000000000000000000000000000000000000000000000000000000000002",
        "nonce": "0xce",
        "accessList": []
      },
      "additionalContracts": [],
      "isFixedGasLimit": false
    },
    {
      "hash": "0x57e104f979ab7ee0d3463ca6f3f0ed01356fde944c8b23595e49bb8211c0ea51",
      "transactionType": "CALL",
      "contractName": "OrgsManager",
      "contractAddress": "0xB3730Ba12699f82f3E29adB2907634b9a3D072C6",
      "function": "joinOrganization(bytes32,bytes32)",
      "arguments": [
        "0x000000000000000000000000000000000000000000000000000000000000000a",
        "0x0000000000000000000000000000000000000000000000000000000000000003"
      ],
      "transaction": {
        "type": "0x02",
        "from": "0xd3cb539dbe80cfaedfe6411727ff2d3d9953ee36",
        "to": "0xb3730ba12699f82f3e29adb2907634b9a3d072c6",
        "gas": "0x9e3d",
        "value": "0x0",
        "data": "0x2d206209000000000000000000000000000000000000000000000000000000000000000a0000000000000000000000000000000000000000000000000000000000000003",
        "nonce": "0x35",
        "accessList": []
      },
      "additionalContracts": [],
      "isFixedGasLimit": false
    },
    {
      "hash": "0x85d363e46e0bb422614758dde6a7871d0a323c68d00e4a5ca8fd37d2e59d4c7a",
      "transactionType": "CALL",
      "contractName": "OrgsManager",
      "contractAddress": "0xB3730Ba12699f82f3E29adB2907634b9a3D072C6",
      "function": "joinOrganization(bytes32,bytes32)",
      "arguments": [
        "0x0000000000000000000000000000000000000000000000000000000000000014",
        "0x0000000000000000000000000000000000000000000000000000000000000003"
      ],
      "transaction": {
        "type": "0x02",
        "from": "0xd3cb539dbe80cfaedfe6411727ff2d3d9953ee36",
        "to": "0xb3730ba12699f82f3e29adb2907634b9a3d072c6",
        "gas": "0x9e3d",
        "value": "0x0",
        "data": "0x2d20620900000000000000000000000000000000000000000000000000000000000000140000000000000000000000000000000000000000000000000000000000000003",
        "nonce": "0x36",
        "accessList": []
      },
      "additionalContracts": [],
      "isFixedGasLimit": false
    },
    {
      "hash": "0xee1f4506a9dc5249da31e92cdf09a211be7613429b37493c6ed3e2f60fd6927f",
      "transactionType": "CALL",
      "contractName": "OrgsManager",
      "contractAddress": "0xB3730Ba12699f82f3E29adB2907634b9a3D072C6",
      "function": "setVotingPowerToMember(bytes32,bytes32,uint256)",
      "arguments": [
        "0x000000000000000000000000000000000000000000000000000000000000000a",
        "0x0000000000000000000000000000000000000000000000000000000000000002",
        "200"
      ],
      "transaction": {
        "type": "0x02",
        "from": "0x0bd654d08c5e0e5646096957acf5f8fb186f58bd",
        "to": "0xb3730ba12699f82f3e29adb2907634b9a3d072c6",
        "gas": "0x97f7",
        "value": "0x0",
        "data": "0x94597085000000000000000000000000000000000000000000000000000000000000000a000000000000000000000000000000000000000000000000000000000000000200000000000000000000000000000000000000000000000000000000000000c8",
        "nonce": "0x110",
        "accessList": []
      },
      "additionalContracts": [],
      "isFixedGasLimit": false
    },
    {
      "hash": "0x9e6e2024ce5cad3a46238d4ea8820b81a223306735a8d231709f23f8347eb618",
      "transactionType": "CALL",
      "contractName": "OrgsManager",
      "contractAddress": "0xB3730Ba12699f82f3E29adB2907634b9a3D072C6",
      "function": "setVotingPowerToMember(bytes32,bytes32,uint256)",
      "arguments": [
        "0x000000000000000000000000000000000000000000000000000000000000000a",
        "0x0000000000000000000000000000000000000000000000000000000000000003",
        "300"
      ],
      "transaction": {
        "type": "0x02",
        "from": "0x0bd654d08c5e0e5646096957acf5f8fb186f58bd",
        "to": "0xb3730ba12699f82f3e29adb2907634b9a3d072c6",
        "gas": "0xa0fa",
        "value": "0x0",
        "data": "0x94597085000000000000000000000000000000000000000000000000000000000000000a0000000000000000000000000000000000000000000000000000000000000003000000000000000000000000000000000000000000000000000000000000012c",
        "nonce": "0x111",
        "accessList": []
      },
      "additionalContracts": [],
      "isFixedGasLimit": false
    },
    {
      "hash": "0x697d61f7ef8d52ac49ddfc4f0343e8748738200c2b9452599901237562edf30b",
      "transactionType": "CALL",
      "contractName": "OrgsManager",
      "contractAddress": "0xB3730Ba12699f82f3E29adB2907634b9a3D072C6",
      "function": "setVotingPowerToMember(bytes32,bytes32,uint256)",
      "arguments": [
        "0x0000000000000000000000000000000000000000000000000000000000000014",
        "0x0000000000000000000000000000000000000000000000000000000000000001",
        "100"
      ],
      "transaction": {
        "type": "0x02",
        "from": "0x26750470f82ba05892fb0088ebe48b1e19d30514",
        "to": "0xb3730ba12699f82f3e29adb2907634b9a3d072c6",
        "gas": "0x97f7",
        "value": "0x0",
        "data": "0x94597085000000000000000000000000000000000000000000000000000000000000001400000000000000000000000000000000000000000000000000000000000000010000000000000000000000000000000000000000000000000000000000000064",
        "nonce": "0xcf",
        "accessList": []
      },
      "additionalContracts": [],
      "isFixedGasLimit": false
    },
    {
      "hash": "0x5162fd8b4ac63868f73464e5aec88c85d236a817f398a250f7a4f839ad7d7057",
      "transactionType": "CALL",
      "contractName": "OrgsManager",
      "contractAddress": "0xB3730Ba12699f82f3E29adB2907634b9a3D072C6",
      "function": "setVotingPowerToMember(bytes32,bytes32,uint256)",
      "arguments": [
        "0x0000000000000000000000000000000000000000000000000000000000000014",
        "0x0000000000000000000000000000000000000000000000000000000000000003",
        "300"
      ],
      "transaction": {
        "type": "0x02",
        "from": "0x26750470f82ba05892fb0088ebe48b1e19d30514",
        "to": "0xb3730ba12699f82f3e29adb2907634b9a3d072c6",
        "gas": "0xa0fa",
        "value": "0x0",
        "data": "0x9459708500000000000000000000000000000000000000000000000000000000000000140000000000000000000000000000000000000000000000000000000000000003000000000000000000000000000000000000000000000000000000000000012c",
        "nonce": "0xd0",
        "accessList": []
      },
      "additionalContracts": [],
      "isFixedGasLimit": false
    },
    {
      "hash": "0xdc7e8a50a245cc342683e986e66426c36ae0388b938fa556eaf1f7fa87564632",
      "transactionType": "CALL",
      "contractName": "OrgsManager",
      "contractAddress": "0xB3730Ba12699f82f3E29adB2907634b9a3D072C6",
      "function": "setVotingPowerToMember(bytes32,bytes32,uint256)",
      "arguments": [
        "0x000000000000000000000000000000000000000000000000000000000000001e",
        "0x0000000000000000000000000000000000000000000000000000000000000001",
        "100"
      ],
      "transaction": {
        "type": "0x02",
        "from": "0x26750470f82ba05892fb0088ebe48b1e19d30514",
        "to": "0xb3730ba12699f82f3e29adb2907634b9a3d072c6",
        "gas": "0x97f7",
        "value": "0x0",
        "data": "0x94597085000000000000000000000000000000000000000000000000000000000000001e00000000000000000000000000000000000000000000000000000000000000010000000000000000000000000000000000000000000000000000000000000064",
        "nonce": "0xd1",
        "accessList": []
      },
      "additionalContracts": [],
      "isFixedGasLimit": false
    },
    {
      "hash": "0xdf4a24f0f81127796618504b0974fd0e361012bbed8b94f849131a53ddf1c29e",
      "transactionType": "CALL",
      "contractName": "OrgsManager",
      "contractAddress": "0xB3730Ba12699f82f3E29adB2907634b9a3D072C6",
      "function": "setVotingPowerToMember(bytes32,bytes32,uint256)",
      "arguments": [
        "0x000000000000000000000000000000000000000000000000000000000000001e",
        "0x0000000000000000000000000000000000000000000000000000000000000002",
        "200"
      ],
      "transaction": {
        "type": "0x02",
        "from": "0x26750470f82ba05892fb0088ebe48b1e19d30514",
        "to": "0xb3730ba12699f82f3e29adb2907634b9a3d072c6",
        "gas": "0x97f7",
        "value": "0x0",
        "data": "0x94597085000000000000000000000000000000000000000000000000000000000000001e000000000000000000000000000000000000000000000000000000000000000200000000000000000000000000000000000000000000000000000000000000c8",
        "nonce": "0xd2",
        "accessList": []
      },
      "additionalContracts": [],
      "isFixedGasLimit": false
    }
  ],
  "receipts": [
    {
      "transactionHash": "0x8e0d93ca33c00ae8661bc9a8609e397db40f3702a3fe3a3de715b7be86682f15",
      "transactionIndex": "0x19",
      "blockHash": "0xad7a734cccbd4562ea015687817e439aa09b0cdd28b32a00a45e51e3a37f77b8",
      "blockNumber": "0x519d92",
      "from": "0x0bD654d08C5e0e5646096957acF5f8fb186F58Bd",
      "to": "0xB3730Ba12699f82f3E29adB2907634b9a3D072C6",
      "cumulativeGasUsed": "0x2df976",
      "gasUsed": "0x165a4",
      "contractAddress": null,
      "logs": [
        {
          "address": "0xB3730Ba12699f82f3E29adB2907634b9a3D072C6",
          "topics": [
            "0xeb039cf7c5de48cc063617d03615583ff929d38b05bddbaebfbfe5b4eb37bc7f"
          ],
          "data": "0x000000000000000000000000000000000000000000000000000000000000000100000000000000000000000000000000000000000000000000000000000000600000000000000000000000000bd654d08c5e0e5646096957acf5f8fb186f58bd0000000000000000000000000000000000000000000000000000000000000005416c696365000000000000000000000000000000000000000000000000000000",
          "blockHash": "0xad7a734cccbd4562ea015687817e439aa09b0cdd28b32a00a45e51e3a37f77b8",
          "blockNumber": "0x519d92",
          "transactionHash": "0x8e0d93ca33c00ae8661bc9a8609e397db40f3702a3fe3a3de715b7be86682f15",
          "transactionIndex": "0x19",
          "logIndex": "0x19",
          "removed": false
        }
      ],
      "status": "0x1",
      "logsBloom": "0x00000000000000000000000000000000000000000000000000000000000000000000000000000000000000000000000000000000020000000000000000000000001000000000002000000000000000000000000000000000000000000000000000000000000000000000000000080000000000000000000000000000000000000000000000000000000000000000000000000000000000000000000000000000000000000000000000000000000800000000000000000000000000000000000000000000000000000000000000000001000000000000000000000000000000000000000000000000000000000000000000000000000000000000000000000000",
      "type": "0x2",
      "effectiveGasPrice": "0xc63e263d"
    },
    {
      "transactionHash": "0x9f92ecad6c9bf2661a0c0541aa11fe41ce11424db79e6eb8ad5dc8063e03c6d6",
      "transactionIndex": "0x11",
      "blockHash": "0xe183b6c5c38031d2f94e833169b087c8049f07a137bec109069c99eff42bd602",
      "blockNumber": "0x519d93",
      "from": "0x0bD654d08C5e0e5646096957acF5f8fb186F58Bd",
      "to": "0xB3730Ba12699f82f3E29adB2907634b9a3D072C6",
      "cumulativeGasUsed": "0xe667c",
      "gasUsed": "0x16627",
      "contractAddress": null,
      "logs": [
        {
          "address": "0xB3730Ba12699f82f3E29adB2907634b9a3D072C6",
          "topics": [
            "0x464d070c2f4097ad37e44efd634d4ff4736936d9971922dc29154f6243b6b045"
          ],
          "data": "0x000000000000000000000000000000000000000000000000000000000000000a00000000000000000000000000000000000000000000000000000000000000600000000000000000000000000bd654d08c5e0e5646096957acf5f8fb186f58bd000000000000000000000000000000000000000000000000000000000000000b416c6963652773204f7267000000000000000000000000000000000000000000",
          "blockHash": "0xe183b6c5c38031d2f94e833169b087c8049f07a137bec109069c99eff42bd602",
          "blockNumber": "0x519d93",
          "transactionHash": "0x9f92ecad6c9bf2661a0c0541aa11fe41ce11424db79e6eb8ad5dc8063e03c6d6",
          "transactionIndex": "0x11",
          "logIndex": "0x5",
          "removed": false
        }
      ],
      "status": "0x1",
      "logsBloom": "0x00000000000000000000000000000000000000000000000000000000000000000000000000000000000000000000000000000000020000000000000000000000004000000000002800000000000000000000000000000000000000000000000000000000000000000000000000000000000000000000000000000000000000000000000000000000000000000000000000000000000100000000000000000000000000000000000000000000000800000000000000000000000000000000000000000000000000000000000000000000000000000000000000000000000000000000000000000000000000000000000000000000000000000000000000000000",
      "type": "0x2",
      "effectiveGasPrice": "0xc74e6fae"
    },
    {
      "transactionHash": "0x49923ac907af627a813ddfb440f4d976ff21d9f33e36f259b2b5503c15f5ec25",
      "transactionIndex": "0x16",
      "blockHash": "0x80585ecedfe2cd5698b3839f3f353366cb66f42d824887058ba81a0e18a8a4b7",
      "blockNumber": "0x519d94",
      "from": "0x26750470f82Ba05892fb0088ebE48b1E19d30514",
      "to": "0xB3730Ba12699f82f3E29adB2907634b9a3D072C6",
      "cumulativeGasUsed": "0x146a85",
      "gasUsed": "0x1658c",
      "contractAddress": null,
      "logs": [
        {
          "address": "0xB3730Ba12699f82f3E29adB2907634b9a3D072C6",
          "topics": [
            "0xeb039cf7c5de48cc063617d03615583ff929d38b05bddbaebfbfe5b4eb37bc7f"
          ],
          "data": "0x0000000000000000000000000000000000000000000000000000000000000002000000000000000000000000000000000000000000000000000000000000006000000000000000000000000026750470f82ba05892fb0088ebe48b1e19d305140000000000000000000000000000000000000000000000000000000000000003426f620000000000000000000000000000000000000000000000000000000000",
          "blockHash": "0x80585ecedfe2cd5698b3839f3f353366cb66f42d824887058ba81a0e18a8a4b7",
          "blockNumber": "0x519d94",
          "transactionHash": "0x49923ac907af627a813ddfb440f4d976ff21d9f33e36f259b2b5503c15f5ec25",
          "transactionIndex": "0x16",
          "logIndex": "0x12",
          "removed": false
        }
      ],
      "status": "0x1",
      "logsBloom": "0x00000000000000000000000000000000000000000000000000000000000000000000000000000000000000000000000000000000020000000000000000000000001000000000002000000000000000000000000000000000000000000000000000000000000000000000000000080000000000000000000000000000000000000000000000000000000000000000000000000000000000000000000000000000000000000000000000000000000800000000000000000000000000000000000000000000000000000000000000000001000000000000000000000000000000000000000000000000000000000000000000000000000000000000000000000000",
      "type": "0x2",
      "effectiveGasPrice": "0xc7108cdb"
    },
    {
      "transactionHash": "0x335dc10b12d05e925d4c638be0635e18609b7ebe8afe032bdf071262232f5fca",
      "transactionIndex": "0x17",
      "blockHash": "0x1430d8ad1c04f92723a554d3a49c6fd7a282ad34758ee476ee6c9dc8341f3d23",
      "blockNumber": "0x519d95",
      "from": "0x26750470f82Ba05892fb0088ebE48b1E19d30514",
      "to": "0xB3730Ba12699f82f3E29adB2907634b9a3D072C6",
      "cumulativeGasUsed": "0x1f8018",
      "gasUsed": "0x1660f",
      "contractAddress": null,
      "logs": [
        {
          "address": "0xB3730Ba12699f82f3E29adB2907634b9a3D072C6",
          "topics": [
            "0x464d070c2f4097ad37e44efd634d4ff4736936d9971922dc29154f6243b6b045"
          ],
          "data": "0x0000000000000000000000000000000000000000000000000000000000000014000000000000000000000000000000000000000000000000000000000000006000000000000000000000000026750470f82ba05892fb0088ebe48b1e19d305140000000000000000000000000000000000000000000000000000000000000009426f622773204f72670000000000000000000000000000000000000000000000",
          "blockHash": "0x1430d8ad1c04f92723a554d3a49c6fd7a282ad34758ee476ee6c9dc8341f3d23",
          "blockNumber": "0x519d95",
          "transactionHash": "0x335dc10b12d05e925d4c638be0635e18609b7ebe8afe032bdf071262232f5fca",
          "transactionIndex": "0x17",
          "logIndex": "0x17",
          "removed": false
        }
      ],
      "status": "0x1",
      "logsBloom": "0x00000000000000000000000000000000000000000000000000000000000000000000000000000000000000000000000000000000020000000000000000000000004000000000002800000000000000000000000000000000000000000000000000000000000000000000000000000000000000000000000000000000000000000000000000000000000000000000000000000000000100000000000000000000000000000000000000000000000800000000000000000000000000000000000000000000000000000000000000000000000000000000000000000000000000000000000000000000000000000000000000000000000000000000000000000000",
      "type": "0x2",
      "effectiveGasPrice": "0xc65dea01"
    },
    {
      "transactionHash": "0xf2900140891a5b5ac82b327ab24cef06afcbf8c0a6e3db790f8fa846b12a1c8d",
      "transactionIndex": "0xc",
      "blockHash": "0x0dfcb784b68fa1ada30b6eb260005ed7f764c1e372d0e83296e9fdd54a0b6dda",
      "blockNumber": "0x519d96",
      "from": "0xD3Cb539Dbe80cFaEdfE6411727ff2D3d9953Ee36",
      "to": "0xB3730Ba12699f82f3E29adB2907634b9a3D072C6",
      "cumulativeGasUsed": "0xc5352",
      "gasUsed": "0x165bc",
      "contractAddress": null,
      "logs": [
        {
          "address": "0xB3730Ba12699f82f3E29adB2907634b9a3D072C6",
          "topics": [
            "0xeb039cf7c5de48cc063617d03615583ff929d38b05bddbaebfbfe5b4eb37bc7f"
          ],
          "data": "0x00000000000000000000000000000000000000000000000000000000000000030000000000000000000000000000000000000000000000000000000000000060000000000000000000000000d3cb539dbe80cfaedfe6411727ff2d3d9953ee360000000000000000000000000000000000000000000000000000000000000007436861726c696500000000000000000000000000000000000000000000000000",
          "blockHash": "0x0dfcb784b68fa1ada30b6eb260005ed7f764c1e372d0e83296e9fdd54a0b6dda",
          "blockNumber": "0x519d96",
          "transactionHash": "0xf2900140891a5b5ac82b327ab24cef06afcbf8c0a6e3db790f8fa846b12a1c8d",
          "transactionIndex": "0xc",
          "logIndex": "0xd",
          "removed": false
        }
      ],
      "status": "0x1",
      "logsBloom": "0x00000000000000000000000000000000000000000000000000000000000000000000000000000000000000000000000000000000020000000000000000000000001000000000002000000000000000000000000000000000000000000000000000000000000000000000000000080000000000000000000000000000000000000000000000000000000000000000000000000000000000000000000000000000000000000000000000000000000800000000000000000000000000000000000000000000000000000000000000000001000000000000000000000000000000000000000000000000000000000000000000000000000000000000000000000000",
      "type": "0x2",
      "effectiveGasPrice": "0xc69e33a7"
    },
    {
      "transactionHash": "0xf4c4891b4172ffa197a56f63c014fdc7e0212f8b7fb2f08fe67158259f781a43",
      "transactionIndex": "0xc",
      "blockHash": "0xed2c93ce1bd11ad7ac4bb9ddaf1062c0a15f6121b7d88b69488fb8735814976c",
      "blockNumber": "0x519d97",
      "from": "0xD3Cb539Dbe80cFaEdfE6411727ff2D3d9953Ee36",
      "to": "0xB3730Ba12699f82f3E29adB2907634b9a3D072C6",
      "cumulativeGasUsed": "0x92a28",
      "gasUsed": "0x1663f",
      "contractAddress": null,
      "logs": [
        {
          "address": "0xB3730Ba12699f82f3E29adB2907634b9a3D072C6",
          "topics": [
            "0x464d070c2f4097ad37e44efd634d4ff4736936d9971922dc29154f6243b6b045"
          ],
          "data": "0x000000000000000000000000000000000000000000000000000000000000001e0000000000000000000000000000000000000000000000000000000000000060000000000000000000000000d3cb539dbe80cfaedfe6411727ff2d3d9953ee36000000000000000000000000000000000000000000000000000000000000000d436861726c69652773204f726700000000000000000000000000000000000000",
          "blockHash": "0xed2c93ce1bd11ad7ac4bb9ddaf1062c0a15f6121b7d88b69488fb8735814976c",
          "blockNumber": "0x519d97",
          "transactionHash": "0xf4c4891b4172ffa197a56f63c014fdc7e0212f8b7fb2f08fe67158259f781a43",
          "transactionIndex": "0xc",
          "logIndex": "0x7",
          "removed": false
        }
      ],
      "status": "0x1",
      "logsBloom": "0x00000000000000000000000000000000000000000000000000000000000000000000000000000000000000000000000000000000020000000000000000000000004000000000002800000000000000000000000000000000000000000000000000000000000000000000000000000000000000000000000000000000000000000000000000000000000000000000000000000000000100000000000000000000000000000000000000000000000800000000000000000000000000000000000000000000000000000000000000000000000000000000000000000000000000000000000000000000000000000000000000000000000000000000000000000000",
      "type": "0x2",
      "effectiveGasPrice": "0xc598d868"
    },
    {
      "transactionHash": "0x5c8069a00f4168fb8645ca9fb8228a70c8b097dcf6de4ec26e912507c06fa08a",
      "transactionIndex": "0x12",
      "blockHash": "0x59aee1fce006a65caf34c1f04c928fd525a5c908d2b851a23c457ca9f9404ad2",
      "blockNumber": "0x519d98",
      "from": "0x0bD654d08C5e0e5646096957acF5f8fb186F58Bd",
      "to": "0xB3730Ba12699f82f3E29adB2907634b9a3D072C6",
      "cumulativeGasUsed": "0xbb054",
      "gasUsed": "0x6c33",
      "contractAddress": null,
      "logs": [
        {
          "address": "0xB3730Ba12699f82f3E29adB2907634b9a3D072C6",
          "topics": [
            "0x2f8debb872680d5f03e460171e10e014d661f159c5936f0067190f9e46e87a34"
          ],
          "data": "0x00000000000000000000000000000000000000000000000000000000000000140000000000000000000000000000000000000000000000000000000000000001",
          "blockHash": "0x59aee1fce006a65caf34c1f04c928fd525a5c908d2b851a23c457ca9f9404ad2",
          "blockNumber": "0x519d98",
          "transactionHash": "0x5c8069a00f4168fb8645ca9fb8228a70c8b097dcf6de4ec26e912507c06fa08a",
          "transactionIndex": "0x12",
          "logIndex": "0xb",
          "removed": false
        }
      ],
      "status": "0x1",
      "logsBloom": "0x00000002000000000000000000000000000000000000000000000000000000000000000000000000000000000000000000000000020000000000000000000000000000000000002000000000000000000000000000001000000000000000000000020000000000000000000000000000000000000000000000000000000000000000000000000000000000000000000000000000000000000000000000000000000000000000000000000000000800000000000000000000000000000000000000000000000000000000000000000000000000000000000000000000000000000000000000000000000000000000000000000000000000000000000000000000",
      "type": "0x2",
      "effectiveGasPrice": "0xc544484c"
    },
    {
      "transactionHash": "0x8b4055a15f5fcd5ecfd7b65b1607e63f09c81b6569bdb3e8324a219f371053fe",
      "transactionIndex": "0x17",
      "blockHash": "0x1854a03f6ac7b5acce72ec5af1aa15dc33c19195b681c6bfe171a7adc9ac60b5",
      "blockNumber": "0x519d9a",
      "from": "0x0bD654d08C5e0e5646096957acF5f8fb186F58Bd",
      "to": "0xB3730Ba12699f82f3E29adB2907634b9a3D072C6",
      "cumulativeGasUsed": "0x12224c",
      "gasUsed": "0x6c33",
      "contractAddress": null,
      "logs": [
        {
          "address": "0xB3730Ba12699f82f3E29adB2907634b9a3D072C6",
          "topics": [
            "0x2f8debb872680d5f03e460171e10e014d661f159c5936f0067190f9e46e87a34"
          ],
          "data": "0x000000000000000000000000000000000000000000000000000000000000001e0000000000000000000000000000000000000000000000000000000000000001",
          "blockHash": "0x1854a03f6ac7b5acce72ec5af1aa15dc33c19195b681c6bfe171a7adc9ac60b5",
          "blockNumber": "0x519d9a",
          "transactionHash": "0x8b4055a15f5fcd5ecfd7b65b1607e63f09c81b6569bdb3e8324a219f371053fe",
          "transactionIndex": "0x17",
          "logIndex": "0x12",
          "removed": false
        }
      ],
      "status": "0x1",
      "logsBloom": "0x00000002000000000000000000000000000000000000000000000000000000000000000000000000000000000000000000000000020000000000000000000000000000000000002000000000000000000000000000001000000000000000000000020000000000000000000000000000000000000000000000000000000000000000000000000000000000000000000000000000000000000000000000000000000000000000000000000000000800000000000000000000000000000000000000000000000000000000000000000000000000000000000000000000000000000000000000000000000000000000000000000000000000000000000000000000",
      "type": "0x2",
      "effectiveGasPrice": "0xc345e432"
    },
    {
      "transactionHash": "0xc95ef368b208627315343131e88c07e5fa40907cc452ea77232a0594879b632b",
      "transactionIndex": "0x12",
      "blockHash": "0xf1f08c66b679c6a7850d01584562465611a998311535ee142c635d59b4c04939",
      "blockNumber": "0x519d9b",
      "from": "0x26750470f82Ba05892fb0088ebE48b1E19d30514",
      "to": "0xB3730Ba12699f82f3E29adB2907634b9a3D072C6",
      "cumulativeGasUsed": "0x775a8e",
      "gasUsed": "0x6c33",
      "contractAddress": null,
      "logs": [
        {
          "address": "0xB3730Ba12699f82f3E29adB2907634b9a3D072C6",
          "topics": [
            "0x2f8debb872680d5f03e460171e10e014d661f159c5936f0067190f9e46e87a34"
          ],
          "data": "0x000000000000000000000000000000000000000000000000000000000000000a0000000000000000000000000000000000000000000000000000000000000002",
          "blockHash": "0xf1f08c66b679c6a7850d01584562465611a998311535ee142c635d59b4c04939",
          "blockNumber": "0x519d9b",
          "transactionHash": "0xc95ef368b208627315343131e88c07e5fa40907cc452ea77232a0594879b632b",
          "transactionIndex": "0x12",
          "logIndex": "0x38",
          "removed": false
        }
      ],
      "status": "0x1",
      "logsBloom": "0x00000002000000000000000000000000000000000000000000000000000000000000000000000000000000000000000000000000020000000000000000000000000000000000002000000000000000000000000000001000000000000000000000020000000000000000000000000000000000000000000000000000000000000000000000000000000000000000000000000000000000000000000000000000000000000000000000000000000800000000000000000000000000000000000000000000000000000000000000000000000000000000000000000000000000000000000000000000000000000000000000000000000000000000000000000000",
      "type": "0x2",
      "effectiveGasPrice": "0xc42eb29c"
    },
    {
      "transactionHash": "0xfeb866c1242cb10d9bc35e6642cdab201e701de5ca3a0c2a1948c9d4f0c3d6d2",
      "transactionIndex": "0xa",
      "blockHash": "0xb4b7f1dd072a3896a787b0ed10a2c5cf48a2a7e857cf1ca7475c25824af2af79",
      "blockNumber": "0x519d9c",
      "from": "0x26750470f82Ba05892fb0088ebE48b1E19d30514",
      "to": "0xB3730Ba12699f82f3E29adB2907634b9a3D072C6",
      "cumulativeGasUsed": "0x5a03c",
      "gasUsed": "0x6c33",
      "contractAddress": null,
      "logs": [
        {
          "address": "0xB3730Ba12699f82f3E29adB2907634b9a3D072C6",
          "topics": [
            "0x2f8debb872680d5f03e460171e10e014d661f159c5936f0067190f9e46e87a34"
          ],
          "data": "0x000000000000000000000000000000000000000000000000000000000000001e0000000000000000000000000000000000000000000000000000000000000002",
          "blockHash": "0xb4b7f1dd072a3896a787b0ed10a2c5cf48a2a7e857cf1ca7475c25824af2af79",
          "blockNumber": "0x519d9c",
          "transactionHash": "0xfeb866c1242cb10d9bc35e6642cdab201e701de5ca3a0c2a1948c9d4f0c3d6d2",
          "transactionIndex": "0xa",
          "logIndex": "0x6",
          "removed": false
        }
      ],
      "status": "0x1",
      "logsBloom": "0x00000002000000000000000000000000000000000000000000000000000000000000000000000000000000000000000000000000020000000000000000000000000000000000002000000000000000000000000000001000000000000000000000020000000000000000000000000000000000000000000000000000000000000000000000000000000000000000000000000000000000000000000000000000000000000000000000000000000800000000000000000000000000000000000000000000000000000000000000000000000000000000000000000000000000000000000000000000000000000000000000000000000000000000000000000000",
      "type": "0x2",
      "effectiveGasPrice": "0xc5a89bd1"
    },
    {
      "transactionHash": "0x57e104f979ab7ee0d3463ca6f3f0ed01356fde944c8b23595e49bb8211c0ea51",
      "transactionIndex": "0xc",
      "blockHash": "0xbef85bb6e875a5988c6dce23e84a365bd4188a94ee5cd0b4665a336262ec6221",
      "blockNumber": "0x519d9d",
      "from": "0xD3Cb539Dbe80cFaEdfE6411727ff2D3d9953Ee36",
      "to": "0xB3730Ba12699f82f3E29adB2907634b9a3D072C6",
      "cumulativeGasUsed": "0xc5312",
      "gasUsed": "0x6c33",
      "contractAddress": null,
      "logs": [
        {
          "address": "0xB3730Ba12699f82f3E29adB2907634b9a3D072C6",
          "topics": [
            "0x2f8debb872680d5f03e460171e10e014d661f159c5936f0067190f9e46e87a34"
          ],
          "data": "0x000000000000000000000000000000000000000000000000000000000000000a0000000000000000000000000000000000000000000000000000000000000003",
          "blockHash": "0xbef85bb6e875a5988c6dce23e84a365bd4188a94ee5cd0b4665a336262ec6221",
          "blockNumber": "0x519d9d",
          "transactionHash": "0x57e104f979ab7ee0d3463ca6f3f0ed01356fde944c8b23595e49bb8211c0ea51",
          "transactionIndex": "0xc",
          "logIndex": "0x8",
          "removed": false
        }
      ],
      "status": "0x1",
      "logsBloom": "0x00000002000000000000000000000000000000000000000000000000000000000000000000000000000000000000000000000000020000000000000000000000000000000000002000000000000000000000000000001000000000000000000000020000000000000000000000000000000000000000000000000000000000000000000000000000000000000000000000000000000000000000000000000000000000000000000000000000000800000000000000000000000000000000000000000000000000000000000000000000000000000000000000000000000000000000000000000000000000000000000000000000000000000000000000000000",
      "type": "0x2",
      "effectiveGasPrice": "0xc4b7b567"
    },
    {
      "transactionHash": "0x85d363e46e0bb422614758dde6a7871d0a323c68d00e4a5ca8fd37d2e59d4c7a",
      "transactionIndex": "0xf",
      "blockHash": "0x3ce56fb61da9ee73039533291d3684b9b6be35b222ce2c4bbb0d9e02cf266a05",
      "blockNumber": "0x519d9e",
      "from": "0xD3Cb539Dbe80cFaEdfE6411727ff2D3d9953Ee36",
      "to": "0xB3730Ba12699f82f3E29adB2907634b9a3D072C6",
      "cumulativeGasUsed": "0x165b9f",
      "gasUsed": "0x6c33",
      "contractAddress": null,
      "logs": [
        {
          "address": "0xB3730Ba12699f82f3E29adB2907634b9a3D072C6",
          "topics": [
            "0x2f8debb872680d5f03e460171e10e014d661f159c5936f0067190f9e46e87a34"
          ],
          "data": "0x00000000000000000000000000000000000000000000000000000000000000140000000000000000000000000000000000000000000000000000000000000003",
          "blockHash": "0x3ce56fb61da9ee73039533291d3684b9b6be35b222ce2c4bbb0d9e02cf266a05",
          "blockNumber": "0x519d9e",
          "transactionHash": "0x85d363e46e0bb422614758dde6a7871d0a323c68d00e4a5ca8fd37d2e59d4c7a",
          "transactionIndex": "0xf",
          "logIndex": "0xc",
          "removed": false
        }
      ],
      "status": "0x1",
      "logsBloom": "0x00000002000000000000000000000000000000000000000000000000000000000000000000000000000000000000000000000000020000000000000000000000000000000000002000000000000000000000000000001000000000000000000000020000000000000000000000000000000000000000000000000000000000000000000000000000000000000000000000000000000000000000000000000000000000000000000000000000000800000000000000000000000000000000000000000000000000000000000000000000000000000000000000000000000000000000000000000000000000000000000000000000000000000000000000000000",
      "type": "0x2",
      "effectiveGasPrice": "0xc43ecb2c"
    },
    {
      "transactionHash": "0xee1f4506a9dc5249da31e92cdf09a211be7613429b37493c6ed3e2f60fd6927f",
      "transactionIndex": "0x11",
      "blockHash": "0x64ff8645223ed3e17c62f9e71e6a89ef6cf714e1f2b393e8e3b76bf184e189fc",
      "blockNumber": "0x519d9f",
      "from": "0x0bD654d08C5e0e5646096957acF5f8fb186F58Bd",
      "to": "0xB3730Ba12699f82f3E29adB2907634b9a3D072C6",
      "cumulativeGasUsed": "0xd4dca",
      "gasUsed": "0x6e06",
      "contractAddress": null,
      "logs": [
        {
          "address": "0xB3730Ba12699f82f3E29adB2907634b9a3D072C6",
          "topics": [
            "0x2d970ff6ae1d156918c14fae8889baeee8d411dcce8f2f6a8809deaae183eaf9"
          ],
          "data": "0x000000000000000000000000000000000000000000000000000000000000000a000000000000000000000000000000000000000000000000000000000000000200000000000000000000000000000000000000000000000000000000000000c8",
          "blockHash": "0x64ff8645223ed3e17c62f9e71e6a89ef6cf714e1f2b393e8e3b76bf184e189fc",
          "blockNumber": "0x519d9f",
          "transactionHash": "0xee1f4506a9dc5249da31e92cdf09a211be7613429b37493c6ed3e2f60fd6927f",
          "transactionIndex": "0x11",
          "logIndex": "0xd",
          "removed": false
        }
      ],
      "status": "0x1",
      "logsBloom": "0x00000000000000000000000000000000000000000000000000000000000000000000000000000000000000000000000000000000020000000000000000000000000000000000002000000000000000000000000000000000000000000000000000000000000000000000000000000000000000000000000000000000000000000000000000000000000000000000000000000000000000000000000000000000000000000000000000000000000800000000000000000000000000000000000000000000000000000000000000000000000000000000000000000000000000000000008000000000000000000000000008000000000001000000000000000000",
      "type": "0x2",
      "effectiveGasPrice": "0xc6290b14"
    },
    {
      "transactionHash": "0x9e6e2024ce5cad3a46238d4ea8820b81a223306735a8d231709f23f8347eb618",
      "transactionIndex": "0x26",
      "blockHash": "0x2fea601bda137e9a21b94753fb42234aa2372e602c606bd57476d7228c80e332",
      "blockNumber": "0x519da0",
      "from": "0x0bD654d08C5e0e5646096957acF5f8fb186F58Bd",
      "to": "0xB3730Ba12699f82f3E29adB2907634b9a3D072C6",
      "cumulativeGasUsed": "0x24cd2b",
      "gasUsed": "0x6e12",
      "contractAddress": null,
      "logs": [
        {
          "address": "0xB3730Ba12699f82f3E29adB2907634b9a3D072C6",
          "topics": [
            "0x2d970ff6ae1d156918c14fae8889baeee8d411dcce8f2f6a8809deaae183eaf9"
          ],
          "data": "0x000000000000000000000000000000000000000000000000000000000000000a0000000000000000000000000000000000000000000000000000000000000003000000000000000000000000000000000000000000000000000000000000012c",
          "blockHash": "0x2fea601bda137e9a21b94753fb42234aa2372e602c606bd57476d7228c80e332",
          "blockNumber": "0x519da0",
          "transactionHash": "0x9e6e2024ce5cad3a46238d4ea8820b81a223306735a8d231709f23f8347eb618",
          "transactionIndex": "0x26",
          "logIndex": "0x16",
          "removed": false
        }
      ],
      "status": "0x1",
      "logsBloom": "0x00000000000000000000000000000000000000000000000000000000000000000000000000000000000000000000000000000000020000000000000000000000000000000000002000000000000000000000000000000000000000000000000000000000000000000000000000000000000000000000000000000000000000000000000000000000000000000000000000000000000000000000000000000000000000000000000000000000000800000000000000000000000000000000000000000000000000000000000000000000000000000000000000000000000000000000008000000000000000000000000008000000000001000000000000000000",
      "type": "0x2",
      "effectiveGasPrice": "0xc5861d8d"
    },
    {
      "transactionHash": "0x697d61f7ef8d52ac49ddfc4f0343e8748738200c2b9452599901237562edf30b",
      "transactionIndex": "0x4",
      "blockHash": "0xbfb7841a849e8bd9d0d2a8bcbc13aa7e2ec4c1ea143ccc2836c08603e1d9b7ac",
      "blockNumber": "0x519da1",
      "from": "0x26750470f82Ba05892fb0088ebE48b1E19d30514",
      "to": "0xB3730Ba12699f82f3E29adB2907634b9a3D072C6",
      "cumulativeGasUsed": "0xfd6f0",
      "gasUsed": "0x6e06",
      "contractAddress": null,
      "logs": [
        {
          "address": "0xB3730Ba12699f82f3E29adB2907634b9a3D072C6",
          "topics": [
            "0x2d970ff6ae1d156918c14fae8889baeee8d411dcce8f2f6a8809deaae183eaf9"
          ],
          "data": "0x000000000000000000000000000000000000000000000000000000000000001400000000000000000000000000000000000000000000000000000000000000010000000000000000000000000000000000000000000000000000000000000064",
          "blockHash": "0xbfb7841a849e8bd9d0d2a8bcbc13aa7e2ec4c1ea143ccc2836c08603e1d9b7ac",
          "blockNumber": "0x519da1",
          "transactionHash": "0x697d61f7ef8d52ac49ddfc4f0343e8748738200c2b9452599901237562edf30b",
          "transactionIndex": "0x4",
          "logIndex": "0x6",
          "removed": false
        }
      ],
      "status": "0x1",
      "logsBloom": "0x00000000000000000000000000000000000000000000000000000000000000000000000000000000000000000000000000000000020000000000000000000000000000000000002000000000000000000000000000000000000000000000000000000000000000000000000000000000000000000000000000000000000000000000000000000000000000000000000000000000000000000000000000000000000000000000000000000000000800000000000000000000000000000000000000000000000000000000000000000000000000000000000000000000000000000000008000000000000000000000000008000000000001000000000000000000",
      "type": "0x2",
      "effectiveGasPrice": "0xc64f209f"
    },
    {
      "transactionHash": "0x5162fd8b4ac63868f73464e5aec88c85d236a817f398a250f7a4f839ad7d7057",
      "transactionIndex": "0x1d",
      "blockHash": "0xb06df1fd09305738ed72ef4fed05164c3ef499d11527bbe3b85bb9b6742aaf1c",
      "blockNumber": "0x519da2",
      "from": "0x26750470f82Ba05892fb0088ebE48b1E19d30514",
      "to": "0xB3730Ba12699f82f3E29adB2907634b9a3D072C6",
      "cumulativeGasUsed": "0x1ebab4",
      "gasUsed": "0x6e12",
      "contractAddress": null,
      "logs": [
        {
          "address": "0xB3730Ba12699f82f3E29adB2907634b9a3D072C6",
          "topics": [
            "0x2d970ff6ae1d156918c14fae8889baeee8d411dcce8f2f6a8809deaae183eaf9"
          ],
          "data": "0x00000000000000000000000000000000000000000000000000000000000000140000000000000000000000000000000000000000000000000000000000000003000000000000000000000000000000000000000000000000000000000000012c",
          "blockHash": "0xb06df1fd09305738ed72ef4fed05164c3ef499d11527bbe3b85bb9b6742aaf1c",
          "blockNumber": "0x519da2",
          "transactionHash": "0x5162fd8b4ac63868f73464e5aec88c85d236a817f398a250f7a4f839ad7d7057",
          "transactionIndex": "0x1d",
          "logIndex": "0x20",
          "removed": false
        }
      ],
      "status": "0x1",
      "logsBloom": "0x00000000000000000000000000000000000000000000000000000000000000000000000000000000000000000000000000000000020000000000000000000000000000000000002000000000000000000000000000000000000000000000000000000000000000000000000000000000000000000000000000000000000000000000000000000000000000000000000000000000000000000000000000000000000000000000000000000000000800000000000000000000000000000000000000000000000000000000000000000000000000000000000000000000000000000000008000000000000000000000000008000000000001000000000000000000",
      "type": "0x2",
      "effectiveGasPrice": "0xc4b39f59"
    },
    {
      "transactionHash": "0xdc7e8a50a245cc342683e986e66426c36ae0388b938fa556eaf1f7fa87564632",
      "transactionIndex": "0xc",
      "blockHash": "0x817e7d9b5550d3bb28550bff557e332b0ed6364e26531463088c5e4f638b4605",
      "blockNumber": "0x519da3",
      "from": "0x26750470f82Ba05892fb0088ebE48b1E19d30514",
      "to": "0xB3730Ba12699f82f3E29adB2907634b9a3D072C6",
      "cumulativeGasUsed": "0x14df2b",
      "gasUsed": "0x6e06",
      "contractAddress": null,
      "logs": [
        {
          "address": "0xB3730Ba12699f82f3E29adB2907634b9a3D072C6",
          "topics": [
            "0x2d970ff6ae1d156918c14fae8889baeee8d411dcce8f2f6a8809deaae183eaf9"
          ],
          "data": "0x000000000000000000000000000000000000000000000000000000000000001e00000000000000000000000000000000000000000000000000000000000000010000000000000000000000000000000000000000000000000000000000000064",
          "blockHash": "0x817e7d9b5550d3bb28550bff557e332b0ed6364e26531463088c5e4f638b4605",
          "blockNumber": "0x519da3",
          "transactionHash": "0xdc7e8a50a245cc342683e986e66426c36ae0388b938fa556eaf1f7fa87564632",
          "transactionIndex": "0xc",
          "logIndex": "0xc",
          "removed": false
        }
      ],
      "status": "0x1",
      "logsBloom": "0x00000000000000000000000000000000000000000000000000000000000000000000000000000000000000000000000000000000020000000000000000000000000000000000002000000000000000000000000000000000000000000000000000000000000000000000000000000000000000000000000000000000000000000000000000000000000000000000000000000000000000000000000000000000000000000000000000000000000800000000000000000000000000000000000000000000000000000000000000000000000000000000000000000000000000000000008000000000000000000000000008000000000001000000000000000000",
      "type": "0x2",
      "effectiveGasPrice": "0xc4693643"
    },
    {
      "transactionHash": "0xdf4a24f0f81127796618504b0974fd0e361012bbed8b94f849131a53ddf1c29e",
      "transactionIndex": "0x18",
      "blockHash": "0x16c6ce00296887d9293959877fac36f67c0ccce1163f2f4e7b21e5df6cefb596",
      "blockNumber": "0x519da4",
      "from": "0x26750470f82Ba05892fb0088ebE48b1E19d30514",
      "to": "0xB3730Ba12699f82f3E29adB2907634b9a3D072C6",
      "cumulativeGasUsed": "0x12caa4",
      "gasUsed": "0x6e06",
      "contractAddress": null,
      "logs": [
        {
          "address": "0xB3730Ba12699f82f3E29adB2907634b9a3D072C6",
          "topics": [
            "0x2d970ff6ae1d156918c14fae8889baeee8d411dcce8f2f6a8809deaae183eaf9"
          ],
          "data": "0x000000000000000000000000000000000000000000000000000000000000001e000000000000000000000000000000000000000000000000000000000000000200000000000000000000000000000000000000000000000000000000000000c8",
          "blockHash": "0x16c6ce00296887d9293959877fac36f67c0ccce1163f2f4e7b21e5df6cefb596",
          "blockNumber": "0x519da4",
          "transactionHash": "0xdf4a24f0f81127796618504b0974fd0e361012bbed8b94f849131a53ddf1c29e",
          "transactionIndex": "0x18",
          "logIndex": "0xf",
          "removed": false
        }
      ],
      "status": "0x1",
      "logsBloom": "0x00000000000000000000000000000000000000000000000000000000000000000000000000000000000000000000000000000000020000000000000000000000000000000000002000000000000000000000000000000000000000000000000000000000000000000000000000000000000000000000000000000000000000000000000000000000000000000000000000000000000000000000000000000000000000000000000000000000000800000000000000000000000000000000000000000000000000000000000000000000000000000000000000000000000000000000008000000000000000000000000008000000000001000000000000000000",
      "type": "0x2",
      "effectiveGasPrice": "0xc65cd977"
    }
  ],
  "libraries": [],
  "pending": [],
  "returns": {},
  "timestamp": 1708711599,
  "chain": 11155111,
  "multi": false,
  "commit": "4a4b41a"
}