{
  "transactions": [
    {
      "hash": "0xfb4b9788551a2e6e283f6c6654f7cb5585da30b9e62b749aacab571431fdbf57",
      "transactionType": "CALL",
      "contractName": "OrgsManager",
      "contractAddress": "0xC3A5cF24584d3a06360285B88a8f5582A1FC1158",
      "function": "createMember(bytes32,string)",
      "arguments": [
        "0x0000000000000000000000000000000000000000000000000000000000000001",
        "\"Alice\""
      ],
      "transaction": {
        "type": "0x02",
        "from": "0x0bd654d08c5e0e5646096957acf5f8fb186f58bd",
        "to": "0xc3a5cf24584d3a06360285b88a8f5582a1fc1158",
        "gas": "0x1fa9a",
        "value": "0x0",
        "data": "0x5115f487000000000000000000000000000000000000000000000000000000000000000100000000000000000000000000000000000000000000000000000000000000400000000000000000000000000000000000000000000000000000000000000005416c696365000000000000000000000000000000000000000000000000000000",
        "nonce": "0x115",
        "accessList": []
      },
      "additionalContracts": [],
      "isFixedGasLimit": false
    },
    {
      "hash": "0x59b8423f51a6f197cda74cb00b3a0f4ca2ea0c4e3d52b2d21c2a6375a1329d31",
      "transactionType": "CALL",
      "contractName": "OrgsManager",
      "contractAddress": "0xC3A5cF24584d3a06360285B88a8f5582A1FC1158",
      "function": "createOrganization(bytes32,string)",
      "arguments": [
        "0x000000000000000000000000000000000000000000000000000000000000000a",
        "\"Alice's Org\""
      ],
      "transaction": {
        "type": "0x02",
        "from": "0x0bd654d08c5e0e5646096957acf5f8fb186f58bd",
        "to": "0xc3a5cf24584d3a06360285b88a8f5582a1fc1158",
        "gas": "0x20bab",
        "value": "0x0",
        "data": "0xcf06b552000000000000000000000000000000000000000000000000000000000000000a0000000000000000000000000000000000000000000000000000000000000040000000000000000000000000000000000000000000000000000000000000000b416c6963652773204f7267000000000000000000000000000000000000000000",
        "nonce": "0x116",
        "accessList": []
      },
      "additionalContracts": [],
      "isFixedGasLimit": false
    },
    {
      "hash": "0xeabcf4b1eb482b40b64e67720ecbbd8caf56bbcb96854ddf233d0e770cfc2d51",
      "transactionType": "CALL",
      "contractName": "OrgsManager",
      "contractAddress": "0xC3A5cF24584d3a06360285B88a8f5582A1FC1158",
      "function": "createMember(bytes32,string)",
      "arguments": [
        "0x0000000000000000000000000000000000000000000000000000000000000002",
        "\"Bob\""
      ],
      "transaction": {
        "type": "0x02",
        "from": "0x26750470f82ba05892fb0088ebe48b1e19d30514",
        "to": "0xc3a5cf24584d3a06360285b88a8f5582a1fc1158",
        "gas": "0x1fa78",
        "value": "0x0",
        "data": "0x5115f487000000000000000000000000000000000000000000000000000000000000000200000000000000000000000000000000000000000000000000000000000000400000000000000000000000000000000000000000000000000000000000000003426f620000000000000000000000000000000000000000000000000000000000",
        "nonce": "0xd3",
        "accessList": []
      },
      "additionalContracts": [],
      "isFixedGasLimit": false
    },
    {
      "hash": "0x76ee6eaa312fb112a0230a6033695b9ba6609c0bb7945940825569a495265340",
      "transactionType": "CALL",
      "contractName": "OrgsManager",
      "contractAddress": "0xC3A5cF24584d3a06360285B88a8f5582A1FC1158",
      "function": "createOrganization(bytes32,string)",
      "arguments": [
        "0x0000000000000000000000000000000000000000000000000000000000000014",
        "\"Bob's Org\""
      ],
      "transaction": {
        "type": "0x02",
        "from": "0x26750470f82ba05892fb0088ebe48b1e19d30514",
        "to": "0xc3a5cf24584d3a06360285b88a8f5582a1fc1158",
        "gas": "0x20b88",
        "value": "0x0",
        "data": "0xcf06b552000000000000000000000000000000000000000000000000000000000000001400000000000000000000000000000000000000000000000000000000000000400000000000000000000000000000000000000000000000000000000000000009426f622773204f72670000000000000000000000000000000000000000000000",
        "nonce": "0xd4",
        "accessList": []
      },
      "additionalContracts": [],
      "isFixedGasLimit": false
    },
    {
      "hash": "0x867cce5095d9ad6bd40f6ed9feccbaddfc8601199e48a764039da415d7846522",
      "transactionType": "CALL",
      "contractName": "OrgsManager",
      "contractAddress": "0xC3A5cF24584d3a06360285B88a8f5582A1FC1158",
      "function": "createMember(bytes32,string)",
      "arguments": [
        "0x0000000000000000000000000000000000000000000000000000000000000003",
        "\"Charlie\""
      ],
      "transaction": {
        "type": "0x02",
        "from": "0xd3cb539dbe80cfaedfe6411727ff2d3d9953ee36",
        "to": "0xc3a5cf24584d3a06360285b88a8f5582a1fc1158",
        "gas": "0x1fabb",
        "value": "0x0",
        "data": "0x5115f487000000000000000000000000000000000000000000000000000000000000000300000000000000000000000000000000000000000000000000000000000000400000000000000000000000000000000000000000000000000000000000000007436861726c696500000000000000000000000000000000000000000000000000",
        "nonce": "0x37",
        "accessList": []
      },
      "additionalContracts": [],
      "isFixedGasLimit": false
    },
    {
      "hash": "0x6d982458d106f6d53ac1d8ef32addf256727b4db8ffadbf9c2130bea2ace04db",
      "transactionType": "CALL",
      "contractName": "OrgsManager",
      "contractAddress": "0xC3A5cF24584d3a06360285B88a8f5582A1FC1158",
      "function": "createOrganization(bytes32,string)",
      "arguments": [
        "0x000000000000000000000000000000000000000000000000000000000000001e",
        "\"Charlie's Org\""
      ],
      "transaction": {
        "type": "0x02",
        "from": "0xd3cb539dbe80cfaedfe6411727ff2d3d9953ee36",
        "to": "0xc3a5cf24584d3a06360285b88a8f5582a1fc1158",
        "gas": "0x20bcf",
        "value": "0x0",
        "data": "0xcf06b552000000000000000000000000000000000000000000000000000000000000001e0000000000000000000000000000000000000000000000000000000000000040000000000000000000000000000000000000000000000000000000000000000d436861726c69652773204f726700000000000000000000000000000000000000",
        "nonce": "0x38",
        "accessList": []
      },
      "additionalContracts": [],
      "isFixedGasLimit": false
    },
    {
      "hash": "0xaa9ba50d6152c78d82908ed4934a385d642f132ef80fb8a7ae280e41786cb44b",
      "transactionType": "CALL",
      "contractName": "OrgsManager",
      "contractAddress": "0xC3A5cF24584d3a06360285B88a8f5582A1FC1158",
      "function": "joinOrganization(bytes32,bytes32)",
      "arguments": [
        "0x0000000000000000000000000000000000000000000000000000000000000014",
        "0x0000000000000000000000000000000000000000000000000000000000000001"
      ],
      "transaction": {
        "type": "0x02",
        "from": "0x0bd654d08c5e0e5646096957acf5f8fb186f58bd",
        "to": "0xc3a5cf24584d3a06360285b88a8f5582a1fc1158",
        "gas": "0x9e8f",
        "value": "0x0",
        "data": "0x2d20620900000000000000000000000000000000000000000000000000000000000000140000000000000000000000000000000000000000000000000000000000000001",
        "nonce": "0x117",
        "accessList": []
      },
      "additionalContracts": [],
      "isFixedGasLimit": false
    },
    {
      "hash": "0x70371713a1801ca9e64dbac7d5f80e372bc4e853144243c4542234731f04cd95",
      "transactionType": "CALL",
      "contractName": "OrgsManager",
      "contractAddress": "0xC3A5cF24584d3a06360285B88a8f5582A1FC1158",
      "function": "joinOrganization(bytes32,bytes32)",
      "arguments": [
        "0x000000000000000000000000000000000000000000000000000000000000001e",
        "0x0000000000000000000000000000000000000000000000000000000000000001"
      ],
      "transaction": {
        "type": "0x02",
        "from": "0x0bd654d08c5e0e5646096957acf5f8fb186f58bd",
        "to": "0xc3a5cf24584d3a06360285b88a8f5582a1fc1158",
        "gas": "0x9e8f",
        "value": "0x0",
        "data": "0x2d206209000000000000000000000000000000000000000000000000000000000000001e0000000000000000000000000000000000000000000000000000000000000001",
        "nonce": "0x118",
        "accessList": []
      },
      "additionalContracts": [],
      "isFixedGasLimit": false
    },
    {
      "hash": "0xc842ec1041e2967f81646578c3f7d49dd129fdcd1d0bf069e7c8201ebe903928",
      "transactionType": "CALL",
      "contractName": "OrgsManager",
      "contractAddress": "0xC3A5cF24584d3a06360285B88a8f5582A1FC1158",
      "function": "joinOrganization(bytes32,bytes32)",
      "arguments": [
        "0x000000000000000000000000000000000000000000000000000000000000000a",
        "0x0000000000000000000000000000000000000000000000000000000000000002"
      ],
      "transaction": {
        "type": "0x02",
        "from": "0x26750470f82ba05892fb0088ebe48b1e19d30514",
        "to": "0xc3a5cf24584d3a06360285b88a8f5582a1fc1158",
        "gas": "0x9e8f",
        "value": "0x0",
        "data": "0x2d206209000000000000000000000000000000000000000000000000000000000000000a0000000000000000000000000000000000000000000000000000000000000002",
        "nonce": "0xd5",
        "accessList": []
      },
      "additionalContracts": [],
      "isFixedGasLimit": false
    },
    {
      "hash": "0xc8d8efc04774ca6501f55052487c00eb7a1d41f815a089dcf8941b145e06e6e1",
      "transactionType": "CALL",
      "contractName": "OrgsManager",
      "contractAddress": "0xC3A5cF24584d3a06360285B88a8f5582A1FC1158",
      "function": "joinOrganization(bytes32,bytes32)",
      "arguments": [
        "0x000000000000000000000000000000000000000000000000000000000000001e",
        "0x0000000000000000000000000000000000000000000000000000000000000002"
      ],
      "transaction": {
        "type": "0x02",
        "from": "0x26750470f82ba05892fb0088ebe48b1e19d30514",
        "to": "0xc3a5cf24584d3a06360285b88a8f5582a1fc1158",
        "gas": "0x9e8f",
        "value": "0x0",
        "data": "0x2d206209000000000000000000000000000000000000000000000000000000000000001e0000000000000000000000000000000000000000000000000000000000000002",
        "nonce": "0xd6",
        "accessList": []
      },
      "additionalContracts": [],
      "isFixedGasLimit": false
    },
    {
      "hash": "0x8de2fea4314020f12da68d2a04d403b2939a9973abfc26213b327b094bf60556",
      "transactionType": "CALL",
      "contractName": "OrgsManager",
      "contractAddress": "0xC3A5cF24584d3a06360285B88a8f5582A1FC1158",
      "function": "joinOrganization(bytes32,bytes32)",
      "arguments": [
        "0x000000000000000000000000000000000000000000000000000000000000000a",
        "0x0000000000000000000000000000000000000000000000000000000000000003"
      ],
      "transaction": {
        "type": "0x02",
        "from": "0xd3cb539dbe80cfaedfe6411727ff2d3d9953ee36",
        "to": "0xc3a5cf24584d3a06360285b88a8f5582a1fc1158",
        "gas": "0x9e8f",
        "value": "0x0",
        "data": "0x2d206209000000000000000000000000000000000000000000000000000000000000000a0000000000000000000000000000000000000000000000000000000000000003",
        "nonce": "0x39",
        "accessList": []
      },
      "additionalContracts": [],
      "isFixedGasLimit": false
    },
    {
      "hash": "0xae6441cbe725abf3ae7d6674bff5a97a63e309cff25ee7271f05f9e96ab236af",
      "transactionType": "CALL",
      "contractName": "OrgsManager",
      "contractAddress": "0xC3A5cF24584d3a06360285B88a8f5582A1FC1158",
      "function": "joinOrganization(bytes32,bytes32)",
      "arguments": [
        "0x0000000000000000000000000000000000000000000000000000000000000014",
        "0x0000000000000000000000000000000000000000000000000000000000000003"
      ],
      "transaction": {
        "type": "0x02",
        "from": "0xd3cb539dbe80cfaedfe6411727ff2d3d9953ee36",
        "to": "0xc3a5cf24584d3a06360285b88a8f5582a1fc1158",
        "gas": "0x9e8f",
        "value": "0x0",
        "data": "0x2d20620900000000000000000000000000000000000000000000000000000000000000140000000000000000000000000000000000000000000000000000000000000003",
        "nonce": "0x3a",
        "accessList": []
      },
      "additionalContracts": [],
      "isFixedGasLimit": false
    },
    {
      "hash": "0x97646e4b516b3394f5ad0cddbe26a8cc5682dbf467870fc48725c591cc111722",
      "transactionType": "CALL",
      "contractName": "OrgsManager",
      "contractAddress": "0xC3A5cF24584d3a06360285B88a8f5582A1FC1158",
      "function": "setVotingPowerToMember(bytes32,bytes32,uint256)",
      "arguments": [
        "0x000000000000000000000000000000000000000000000000000000000000000a",
        "0x0000000000000000000000000000000000000000000000000000000000000002",
        "200"
      ],
      "transaction": {
        "type": "0x02",
        "from": "0x0bd654d08c5e0e5646096957acf5f8fb186f58bd",
        "to": "0xc3a5cf24584d3a06360285b88a8f5582a1fc1158",
        "gas": "0x9837",
        "value": "0x0",
        "data": "0x94597085000000000000000000000000000000000000000000000000000000000000000a000000000000000000000000000000000000000000000000000000000000000200000000000000000000000000000000000000000000000000000000000000c8",
        "nonce": "0x119",
        "accessList": []
      },
      "additionalContracts": [],
      "isFixedGasLimit": false
    },
    {
      "hash": "0x874c3e5c13f680ad3426aa0dddee684ee606c6afab11a132e3e0819b70362a0d",
      "transactionType": "CALL",
      "contractName": "OrgsManager",
      "contractAddress": "0xC3A5cF24584d3a06360285B88a8f5582A1FC1158",
      "function": "setVotingPowerToMember(bytes32,bytes32,uint256)",
      "arguments": [
        "0x000000000000000000000000000000000000000000000000000000000000000a",
        "0x0000000000000000000000000000000000000000000000000000000000000003",
        "300"
      ],
      "transaction": {
        "type": "0x02",
        "from": "0x0bd654d08c5e0e5646096957acf5f8fb186f58bd",
        "to": "0xc3a5cf24584d3a06360285b88a8f5582a1fc1158",
        "gas": "0x9848",
        "value": "0x0",
        "data": "0x94597085000000000000000000000000000000000000000000000000000000000000000a0000000000000000000000000000000000000000000000000000000000000003000000000000000000000000000000000000000000000000000000000000012c",
        "nonce": "0x11a",
        "accessList": []
      },
      "additionalContracts": [],
      "isFixedGasLimit": false
    },
    {
      "hash": "0x07762dc2a0e859eada7bffe3d976e5323b43ec3cbd49efcc27b971633485b03b",
      "transactionType": "CALL",
      "contractName": "OrgsManager",
      "contractAddress": "0xC3A5cF24584d3a06360285B88a8f5582A1FC1158",
      "function": "setVotingPowerToMember(bytes32,bytes32,uint256)",
      "arguments": [
        "0x0000000000000000000000000000000000000000000000000000000000000014",
        "0x0000000000000000000000000000000000000000000000000000000000000001",
        "100"
      ],
      "transaction": {
        "type": "0x02",
        "from": "0x26750470f82ba05892fb0088ebe48b1e19d30514",
        "to": "0xc3a5cf24584d3a06360285b88a8f5582a1fc1158",
        "gas": "0x9837",
        "value": "0x0",
        "data": "0x94597085000000000000000000000000000000000000000000000000000000000000001400000000000000000000000000000000000000000000000000000000000000010000000000000000000000000000000000000000000000000000000000000064",
        "nonce": "0xd7",
        "accessList": []
      },
      "additionalContracts": [],
      "isFixedGasLimit": false
    },
    {
      "hash": "0x58003b8107f3f17de5a7012967292f1d768511bff6bad24e4a5ee32d6acb7e54",
      "transactionType": "CALL",
      "contractName": "OrgsManager",
      "contractAddress": "0xC3A5cF24584d3a06360285B88a8f5582A1FC1158",
      "function": "setVotingPowerToMember(bytes32,bytes32,uint256)",
      "arguments": [
        "0x0000000000000000000000000000000000000000000000000000000000000014",
        "0x0000000000000000000000000000000000000000000000000000000000000003",
        "300"
      ],
      "transaction": {
        "type": "0x02",
        "from": "0x26750470f82ba05892fb0088ebe48b1e19d30514",
        "to": "0xc3a5cf24584d3a06360285b88a8f5582a1fc1158",
        "gas": "0x9848",
        "value": "0x0",
        "data": "0x9459708500000000000000000000000000000000000000000000000000000000000000140000000000000000000000000000000000000000000000000000000000000003000000000000000000000000000000000000000000000000000000000000012c",
        "nonce": "0xd8",
        "accessList": []
      },
      "additionalContracts": [],
      "isFixedGasLimit": false
    },
    {
      "hash": "0x499cd8c838dd093733a91e8a41a1d6ca33feed88fbe455928d02bc61a99f681a",
      "transactionType": "CALL",
      "contractName": "OrgsManager",
      "contractAddress": "0xC3A5cF24584d3a06360285B88a8f5582A1FC1158",
      "function": "setVotingPowerToMember(bytes32,bytes32,uint256)",
      "arguments": [
        "0x000000000000000000000000000000000000000000000000000000000000001e",
        "0x0000000000000000000000000000000000000000000000000000000000000001",
        "100"
      ],
      "transaction": {
        "type": "0x02",
        "from": "0xd3cb539dbe80cfaedfe6411727ff2d3d9953ee36",
        "to": "0xc3a5cf24584d3a06360285b88a8f5582a1fc1158",
        "gas": "0x9837",
        "value": "0x0",
        "data": "0x94597085000000000000000000000000000000000000000000000000000000000000001e00000000000000000000000000000000000000000000000000000000000000010000000000000000000000000000000000000000000000000000000000000064",
        "nonce": "0x3b",
        "accessList": []
      },
      "additionalContracts": [],
      "isFixedGasLimit": false
    },
    {
      "hash": "0x49b7658133fc0252431d3a94713dc7d5ce8f9d7f8badcb69da39d5358b5c82d5",
      "transactionType": "CALL",
      "contractName": "OrgsManager",
      "contractAddress": "0xC3A5cF24584d3a06360285B88a8f5582A1FC1158",
      "function": "setVotingPowerToMember(bytes32,bytes32,uint256)",
      "arguments": [
        "0x000000000000000000000000000000000000000000000000000000000000001e",
        "0x0000000000000000000000000000000000000000000000000000000000000002",
        "200"
      ],
      "transaction": {
        "type": "0x02",
        "from": "0xd3cb539dbe80cfaedfe6411727ff2d3d9953ee36",
        "to": "0xc3a5cf24584d3a06360285b88a8f5582a1fc1158",
        "gas": "0x9837",
        "value": "0x0",
        "data": "0x94597085000000000000000000000000000000000000000000000000000000000000001e000000000000000000000000000000000000000000000000000000000000000200000000000000000000000000000000000000000000000000000000000000c8",
        "nonce": "0x3c",
        "accessList": []
      },
      "additionalContracts": [],
      "isFixedGasLimit": false
    },
    {
      "hash": "0x334fa64def9af229e9ebd32a80153dc3db3a808011467852c75f4de20cd5488e",
      "transactionType": "CALL",
      "contractName": "OrgsManager",
      "contractAddress": "0xC3A5cF24584d3a06360285B88a8f5582A1FC1158",
      "function": "createAlliance(uint256)",
      "arguments": [
        "1"
      ],
      "transaction": {
        "type": "0x02",
        "from": "0x0bd654d08c5e0e5646096957acf5f8fb186f58bd",
        "to": "0xc3a5cf24584d3a06360285b88a8f5582a1fc1158",
        "gas": "0xff96",
        "value": "0x0",
        "data": "0x9c2253180000000000000000000000000000000000000000000000000000000000000001",
        "nonce": "0x11b",
        "accessList": []
      },
      "additionalContracts": [],
      "isFixedGasLimit": false
    },
    {
      "hash": "0x3e58a104c443a896209bb22a0f60b1e573ef19e2ee8fe6b108293fea0025b6a4",
      "transactionType": "CALL",
      "contractName": "OrgsManager",
      "contractAddress": "0xC3A5cF24584d3a06360285B88a8f5582A1FC1158",
      "function": "createAlliance(uint256)",
      "arguments": [
        "2"
      ],
      "transaction": {
        "type": "0x02",
        "from": "0x0bd654d08c5e0e5646096957acf5f8fb186f58bd",
        "to": "0xc3a5cf24584d3a06360285b88a8f5582a1fc1158",
        "gas": "0xff96",
        "value": "0x0",
        "data": "0x9c2253180000000000000000000000000000000000000000000000000000000000000002",
        "nonce": "0x11c",
        "accessList": []
      },
      "additionalContracts": [],
      "isFixedGasLimit": false
    },
    {
      "hash": "0xbd1a776165ade308041261c0f287298b72c117076ac9a3f10137d6f4c6f3e055",
      "transactionType": "CALL",
      "contractName": "OrgsManager",
      "contractAddress": "0xC3A5cF24584d3a06360285B88a8f5582A1FC1158",
      "function": "joinAlliance(uint256,bytes32)",
      "arguments": [
        "1",
        "0x000000000000000000000000000000000000000000000000000000000000000a"
      ],
      "transaction": {
        "type": "0x02",
        "from": "0x0bd654d08c5e0e5646096957acf5f8fb186f58bd",
        "to": "0xc3a5cf24584d3a06360285b88a8f5582a1fc1158",
        "gas": "0x9e98",
        "value": "0x0",
        "data": "0x88ec6e1a0000000000000000000000000000000000000000000000000000000000000001000000000000000000000000000000000000000000000000000000000000000a",
        "nonce": "0x11d",
        "accessList": []
      },
      "additionalContracts": [],
      "isFixedGasLimit": false
    },
    {
      "hash": "0x146b109846d0dd6f0059b793d7919759ed0eb70530c91d238112ab37247f548b",
      "transactionType": "CALL",
      "contractName": "OrgsManager",
      "contractAddress": "0xC3A5cF24584d3a06360285B88a8f5582A1FC1158",
      "function": "joinAlliance(uint256,bytes32)",
      "arguments": [
        "1",
        "0x0000000000000000000000000000000000000000000000000000000000000014"
      ],
      "transaction": {
        "type": "0x02",
        "from": "0x26750470f82ba05892fb0088ebe48b1e19d30514",
        "to": "0xc3a5cf24584d3a06360285b88a8f5582a1fc1158",
        "gas": "0x9e98",
        "value": "0x0",
        "data": "0x88ec6e1a00000000000000000000000000000000000000000000000000000000000000010000000000000000000000000000000000000000000000000000000000000014",
        "nonce": "0xd9",
        "accessList": []
      },
      "additionalContracts": [],
      "isFixedGasLimit": false
    },
    {
      "hash": "0x71e5ec80e4b41c9449c1ade8efd91bfe59aae6b85b7da6a2c8441fa5719def83",
      "transactionType": "CALL",
      "contractName": "OrgsManager",
      "contractAddress": "0xC3A5cF24584d3a06360285B88a8f5582A1FC1158",
      "function": "joinAlliance(uint256,bytes32)",
      "arguments": [
        "2",
        "0x000000000000000000000000000000000000000000000000000000000000001e"
      ],
      "transaction": {
        "type": "0x02",
        "from": "0xd3cb539dbe80cfaedfe6411727ff2d3d9953ee36",
        "to": "0xc3a5cf24584d3a06360285b88a8f5582a1fc1158",
        "gas": "0x9e98",
        "value": "0x0",
        "data": "0x88ec6e1a0000000000000000000000000000000000000000000000000000000000000002000000000000000000000000000000000000000000000000000000000000001e",
        "nonce": "0x3d",
        "accessList": []
      },
      "additionalContracts": [],
      "isFixedGasLimit": false
    },
    {
      "hash": "0x8a5a699fa7564c34554503a835b6d62019034d46e480da1eb17e1ec969342b33",
      "transactionType": "CALL",
      "contractName": "OrgsManager",
      "contractAddress": "0xC3A5cF24584d3a06360285B88a8f5582A1FC1158",
      "function": "addMemberDelegator(bytes32,address)",
      "arguments": [
        "0x0000000000000000000000000000000000000000000000000000000000000001",
        "0x5b73C5498c1E3b4dbA84de0F1833c4a029d90519"
      ],
      "transaction": {
        "type": "0x02",
        "from": "0x0bd654d08c5e0e5646096957acf5f8fb186f58bd",
        "to": "0xc3a5cf24584d3a06360285b88a8f5582a1fc1158",
        "gas": "0x10324",
        "value": "0x0",
        "data": "0x70514f6e00000000000000000000000000000000000000000000000000000000000000010000000000000000000000005b73c5498c1e3b4dba84de0f1833c4a029d90519",
        "nonce": "0x11e",
        "accessList": []
      },
      "additionalContracts": [],
      "isFixedGasLimit": false
    },
    {
      "hash": "0xbef81e59954b23016e9027a14fff99e0be961af18d7a48389b82d39439dee70a",
      "transactionType": "CALL",
      "contractName": "OrgsManager",
      "contractAddress": "0xC3A5cF24584d3a06360285B88a8f5582A1FC1158",
      "function": "addMemberDelegator(bytes32,address)",
      "arguments": [
        "0x0000000000000000000000000000000000000000000000000000000000000002",
        "0x5b73C5498c1E3b4dbA84de0F1833c4a029d90519"
      ],
      "transaction": {
        "type": "0x02",
        "from": "0x26750470f82ba05892fb0088ebe48b1e19d30514",
        "to": "0xc3a5cf24584d3a06360285b88a8f5582a1fc1158",
        "gas": "0x10324",
        "value": "0x0",
        "data": "0x70514f6e00000000000000000000000000000000000000000000000000000000000000020000000000000000000000005b73c5498c1e3b4dba84de0f1833c4a029d90519",
        "nonce": "0xda",
        "accessList": []
      },
      "additionalContracts": [],
      "isFixedGasLimit": false
    },
    {
      "hash": "0x2b8105b9d5e15c1330bb60eba3287839d35286d562ea597e20ece9b154688089",
      "transactionType": "CALL",
      "contractName": "OrgsManager",
      "contractAddress": "0xC3A5cF24584d3a06360285B88a8f5582A1FC1158",
      "function": "addMemberDelegator(bytes32,address)",
      "arguments": [
        "0x0000000000000000000000000000000000000000000000000000000000000003",
        "0x5b73C5498c1E3b4dbA84de0F1833c4a029d90519"
      ],
      "transaction": {
        "type": "0x02",
        "from": "0xd3cb539dbe80cfaedfe6411727ff2d3d9953ee36",
        "to": "0xc3a5cf24584d3a06360285b88a8f5582a1fc1158",
        "gas": "0x10324",
        "value": "0x0",
        "data": "0x70514f6e00000000000000000000000000000000000000000000000000000000000000030000000000000000000000005b73c5498c1e3b4dba84de0f1833c4a029d90519",
        "nonce": "0x3e",
        "accessList": []
      },
      "additionalContracts": [],
      "isFixedGasLimit": false
    }
  ],
  "receipts": [
    {
      "transactionHash": "0xfb4b9788551a2e6e283f6c6654f7cb5585da30b9e62b749aacab571431fdbf57",
      "transactionIndex": "0x41",
      "blockHash": "0x4080f232ddce7a077f55b698453c7d7efb0b3eca98731498e2ed1ddb12177fba",
      "blockNumber": "0x51d36f",
      "from": "0x0bD654d08C5e0e5646096957acF5f8fb186F58Bd",
      "to": "0xC3A5cF24584d3a06360285B88a8f5582A1FC1158",
      "cumulativeGasUsed": "0x53114a",
      "gasUsed": "0x16ec6",
      "contractAddress": null,
      "logs": [
        {
          "address": "0xC3A5cF24584d3a06360285B88a8f5582A1FC1158",
          "topics": [
            "0xeb039cf7c5de48cc063617d03615583ff929d38b05bddbaebfbfe5b4eb37bc7f"
          ],
          "data": "0x000000000000000000000000000000000000000000000000000000000000000100000000000000000000000000000000000000000000000000000000000000600000000000000000000000000bd654d08c5e0e5646096957acf5f8fb186f58bd0000000000000000000000000000000000000000000000000000000000000005416c696365000000000000000000000000000000000000000000000000000000",
          "blockHash": "0x4080f232ddce7a077f55b698453c7d7efb0b3eca98731498e2ed1ddb12177fba",
          "blockNumber": "0x51d36f",
          "transactionHash": "0xfb4b9788551a2e6e283f6c6654f7cb5585da30b9e62b749aacab571431fdbf57",
          "transactionIndex": "0x41",
          "logIndex": "0x4e",
          "removed": false
        }
      ],
      "status": "0x1",
      "logsBloom": "0x00000000000000000000000000000000000000000000000000000000000000000000000000000000000000000000000000000000000000000000000000000000001000000000000000000000000000000000000000000000000000000000000020040000000000000000000000080000000000000000000000000000000000000000000000000000000000000000000000000000000000000000000000000000000000000000000000000000000000000000000000000000000000000000000000000000000000000000040000000001000000000000000000000000000000000000000000000000000000000000000000000000000000000000000000000000",
      "type": "0x2",
      "effectiveGasPrice": "0x2736253b1"
    },
    {
      "transactionHash": "0x59b8423f51a6f197cda74cb00b3a0f4ca2ea0c4e3d52b2d21c2a6375a1329d31",
      "transactionIndex": "0x3f",
      "blockHash": "0xd7affe9db8f73558d1cebcced46b8ffd6b0338885f2f56e6a1592c9a62e9e149",
      "blockNumber": "0x51d370",
      "from": "0x0bD654d08C5e0e5646096957acF5f8fb186F58Bd",
      "to": "0xC3A5cF24584d3a06360285B88a8f5582A1FC1158",
      "cumulativeGasUsed": "0x871db0",
      "gasUsed": "0x16611",
      "contractAddress": null,
      "logs": [
        {
          "address": "0xC3A5cF24584d3a06360285B88a8f5582A1FC1158",
          "topics": [
            "0x464d070c2f4097ad37e44efd634d4ff4736936d9971922dc29154f6243b6b045"
          ],
          "data": "0x000000000000000000000000000000000000000000000000000000000000000a00000000000000000000000000000000000000000000000000000000000000600000000000000000000000000bd654d08c5e0e5646096957acf5f8fb186f58bd000000000000000000000000000000000000000000000000000000000000000b416c6963652773204f7267000000000000000000000000000000000000000000",
          "blockHash": "0xd7affe9db8f73558d1cebcced46b8ffd6b0338885f2f56e6a1592c9a62e9e149",
          "blockNumber": "0x51d370",
          "transactionHash": "0x59b8423f51a6f197cda74cb00b3a0f4ca2ea0c4e3d52b2d21c2a6375a1329d31",
          "transactionIndex": "0x3f",
          "logIndex": "0xad",
          "removed": false
        }
      ],
      "status": "0x1",
      "logsBloom": "0x00000000000000000000000000000000000000000000000000000000000000000000000000000000000000000000000000000000000000000000000000000000004000000000000800000000000000000000000000000000000000000000000020040000000000000000000000000000000000000000000000000000000000000000000000000000000000000000000000000000000100000000000000000000000000000000000000000000000000000000000000000000000000000000000000000000000000000000040000000000000000000000000000000000000000000000000000000000000000000000000000000000000000000000000000000000",
      "type": "0x2",
      "effectiveGasPrice": "0x2696d1247"
    },
    {
      "transactionHash": "0xeabcf4b1eb482b40b64e67720ecbbd8caf56bbcb96854ddf233d0e770cfc2d51",
      "transactionIndex": "0x2e",
      "blockHash": "0xcb4ad19acefff585f00e36ddf19c811ca9bef576d631da904f0b3ff24e75d170",
      "blockNumber": "0x51d371",
      "from": "0x26750470f82Ba05892fb0088ebE48b1E19d30514",
      "to": "0xC3A5cF24584d3a06360285B88a8f5582A1FC1158",
      "cumulativeGasUsed": "0x5126a7",
      "gasUsed": "0x16eae",
      "contractAddress": null,
      "logs": [
        {
          "address": "0xC3A5cF24584d3a06360285B88a8f5582A1FC1158",
          "topics": [
            "0xeb039cf7c5de48cc063617d03615583ff929d38b05bddbaebfbfe5b4eb37bc7f"
          ],
          "data": "0x0000000000000000000000000000000000000000000000000000000000000002000000000000000000000000000000000000000000000000000000000000006000000000000000000000000026750470f82ba05892fb0088ebe48b1e19d305140000000000000000000000000000000000000000000000000000000000000003426f620000000000000000000000000000000000000000000000000000000000",
          "blockHash": "0xcb4ad19acefff585f00e36ddf19c811ca9bef576d631da904f0b3ff24e75d170",
          "blockNumber": "0x51d371",
          "transactionHash": "0xeabcf4b1eb482b40b64e67720ecbbd8caf56bbcb96854ddf233d0e770cfc2d51",
          "transactionIndex": "0x2e",
          "logIndex": "0x65",
          "removed": false
        }
      ],
      "status": "0x1",
      "logsBloom": "0x00000000000000000000000000000000000000000000000000000000000000000000000000000000000000000000000000000000000000000000000000000000001000000000000000000000000000000000000000000000000000000000000020040000000000000000000000080000000000000000000000000000000000000000000000000000000000000000000000000000000000000000000000000000000000000000000000000000000000000000000000000000000000000000000000000000000000000000040000000001000000000000000000000000000000000000000000000000000000000000000000000000000000000000000000000000",
      "type": "0x2",
      "effectiveGasPrice": "0x25e0edc89"
    },
    {
      "transactionHash": "0x76ee6eaa312fb112a0230a6033695b9ba6609c0bb7945940825569a495265340",
      "transactionIndex": "0x52",
      "blockHash": "0x4e22f2170cba10459bd53fa8036df1f131f2f17da2c439b44810beeecb7152a3",
      "blockNumber": "0x51d372",
      "from": "0x26750470f82Ba05892fb0088ebE48b1E19d30514",
      "to": "0xC3A5cF24584d3a06360285B88a8f5582A1FC1158",
      "cumulativeGasUsed": "0x9b392b",
      "gasUsed": "0x165f9",
      "contractAddress": null,
      "logs": [
        {
          "address": "0xC3A5cF24584d3a06360285B88a8f5582A1FC1158",
          "topics": [
            "0x464d070c2f4097ad37e44efd634d4ff4736936d9971922dc29154f6243b6b045"
          ],
          "data": "0x0000000000000000000000000000000000000000000000000000000000000014000000000000000000000000000000000000000000000000000000000000006000000000000000000000000026750470f82ba05892fb0088ebe48b1e19d305140000000000000000000000000000000000000000000000000000000000000009426f622773204f72670000000000000000000000000000000000000000000000",
          "blockHash": "0x4e22f2170cba10459bd53fa8036df1f131f2f17da2c439b44810beeecb7152a3",
          "blockNumber": "0x51d372",
          "transactionHash": "0x76ee6eaa312fb112a0230a6033695b9ba6609c0bb7945940825569a495265340",
          "transactionIndex": "0x52",
          "logIndex": "0xc9",
          "removed": false
        }
      ],
      "status": "0x1",
      "logsBloom": "0x00000000000000000000000000000000000000000000000000000000000000000000000000000000000000000000000000000000000000000000000000000000004000000000000800000000000000000000000000000000000000000000000020040000000000000000000000000000000000000000000000000000000000000000000000000000000000000000000000000000000100000000000000000000000000000000000000000000000000000000000000000000000000000000000000000000000000000000040000000000000000000000000000000000000000000000000000000000000000000000000000000000000000000000000000000000",
      "type": "0x2",
      "effectiveGasPrice": "0x25469673a"
    },
    {
      "transactionHash": "0x867cce5095d9ad6bd40f6ed9feccbaddfc8601199e48a764039da415d7846522",
      "transactionIndex": "0x34",
      "blockHash": "0xe540e46c8747b2aa4a0ec9e539afbe6da42732545892150e60dc5554913484c7",
      "blockNumber": "0x51d373",
      "from": "0xD3Cb539Dbe80cFaEdfE6411727ff2D3d9953Ee36",
      "to": "0xC3A5cF24584d3a06360285B88a8f5582A1FC1158",
      "cumulativeGasUsed": "0x5a29cb",
      "gasUsed": "0x16ede",
      "contractAddress": null,
      "logs": [
        {
          "address": "0xC3A5cF24584d3a06360285B88a8f5582A1FC1158",
          "topics": [
            "0xeb039cf7c5de48cc063617d03615583ff929d38b05bddbaebfbfe5b4eb37bc7f"
          ],
          "data": "0x00000000000000000000000000000000000000000000000000000000000000030000000000000000000000000000000000000000000000000000000000000060000000000000000000000000d3cb539dbe80cfaedfe6411727ff2d3d9953ee360000000000000000000000000000000000000000000000000000000000000007436861726c696500000000000000000000000000000000000000000000000000",
          "blockHash": "0xe540e46c8747b2aa4a0ec9e539afbe6da42732545892150e60dc5554913484c7",
          "blockNumber": "0x51d373",
          "transactionHash": "0x867cce5095d9ad6bd40f6ed9feccbaddfc8601199e48a764039da415d7846522",
          "transactionIndex": "0x34",
          "logIndex": "0x76",
          "removed": false
        }
      ],
      "status": "0x1",
      "logsBloom": "0x00000000000000000000000000000000000000000000000000000000000000000000000000000000000000000000000000000000000000000000000000000000001000000000000000000000000000000000000000000000000000000000000020040000000000000000000000080000000000000000000000000000000000000000000000000000000000000000000000000000000000000000000000000000000000000000000000000000000000000000000000000000000000000000000000000000000000000000040000000001000000000000000000000000000000000000000000000000000000000000000000000000000000000000000000000000",
      "type": "0x2",
      "effectiveGasPrice": "0x25bb2b167"
    },
    {
      "transactionHash": "0x6d982458d106f6d53ac1d8ef32addf256727b4db8ffadbf9c2130bea2ace04db",
      "transactionIndex": "0x3d",
      "blockHash": "0xca976d441fd9edae9c23ef3cf42e9f4178ceaa8ff4339f1e410c83a02a75fe4e",
      "blockNumber": "0x51d374",
      "from": "0xD3Cb539Dbe80cFaEdfE6411727ff2D3d9953Ee36",
      "to": "0xC3A5cF24584d3a06360285B88a8f5582A1FC1158",
      "cumulativeGasUsed": "0x78ec04",
      "gasUsed": "0x16629",
      "contractAddress": null,
      "logs": [
        {
          "address": "0xC3A5cF24584d3a06360285B88a8f5582A1FC1158",
          "topics": [
            "0x464d070c2f4097ad37e44efd634d4ff4736936d9971922dc29154f6243b6b045"
          ],
          "data": "0x000000000000000000000000000000000000000000000000000000000000001e0000000000000000000000000000000000000000000000000000000000000060000000000000000000000000d3cb539dbe80cfaedfe6411727ff2d3d9953ee36000000000000000000000000000000000000000000000000000000000000000d436861726c69652773204f726700000000000000000000000000000000000000",
          "blockHash": "0xca976d441fd9edae9c23ef3cf42e9f4178ceaa8ff4339f1e410c83a02a75fe4e",
          "blockNumber": "0x51d374",
          "transactionHash": "0x6d982458d106f6d53ac1d8ef32addf256727b4db8ffadbf9c2130bea2ace04db",
          "transactionIndex": "0x3d",
          "logIndex": "0x84",
          "removed": false
        }
      ],
      "status": "0x1",
      "logsBloom": "0x00000000000000000000000000000000000000000000000000000000000000000000000000000000000000000000000000000000000000000000000000000000004000000000000800000000000000000000000000000000000000000000000020040000000000000000000000000000000000000000000000000000000000000000000000000000000000000000000000000000000100000000000000000000000000000000000000000000000000000000000000000000000000000000000000000000000000000000040000000000000000000000000000000000000000000000000000000000000000000000000000000000000000000000000000000000",
      "type": "0x2",
      "effectiveGasPrice": "0x25a8bd0d3"
    },
    {
      "transactionHash": "0xaa9ba50d6152c78d82908ed4934a385d642f132ef80fb8a7ae280e41786cb44b",
      "transactionIndex": "0x3e",
      "blockHash": "0x2b82bf918d44678c8e47afee937983e75057828f1d8fadf064ded972842efddf",
      "blockNumber": "0x51d375",
      "from": "0x0bD654d08C5e0e5646096957acF5f8fb186F58Bd",
      "to": "0xC3A5cF24584d3a06360285B88a8f5582A1FC1158",
      "cumulativeGasUsed": "0x6140b9",
      "gasUsed": "0x6c6b",
      "contractAddress": null,
      "logs": [
        {
          "address": "0xC3A5cF24584d3a06360285B88a8f5582A1FC1158",
          "topics": [
            "0x2f8debb872680d5f03e460171e10e014d661f159c5936f0067190f9e46e87a34"
          ],
          "data": "0x00000000000000000000000000000000000000000000000000000000000000140000000000000000000000000000000000000000000000000000000000000001",
          "blockHash": "0x2b82bf918d44678c8e47afee937983e75057828f1d8fadf064ded972842efddf",
          "blockNumber": "0x51d375",
          "transactionHash": "0xaa9ba50d6152c78d82908ed4934a385d642f132ef80fb8a7ae280e41786cb44b",
          "transactionIndex": "0x3e",
          "logIndex": "0x6f",
          "removed": false
        }
      ],
      "status": "0x1",
      "logsBloom": "0x00000002000000000000000000000000000000000000000000000000000000000000000000000000000000000000000000000000000000000000000000000000000000000000000000000000000000000000000000001000000000000000000020060000000000000000000000000000000000000000000000000000000000000000000000000000000000000000000000000000000000000000000000000000000000000000000000000000000000000000000000000000000000000000000000000000000000000000040000000000000000000000000000000000000000000000000000000000000000000000000000000000000000000000000000000000",
      "type": "0x2",
      "effectiveGasPrice": "0x251c0a844"
    },
    {
      "transactionHash": "0x70371713a1801ca9e64dbac7d5f80e372bc4e853144243c4542234731f04cd95",
      "transactionIndex": "0x3c",
      "blockHash": "0x5b6562c37a4a27f042f576f425f10285dbcc0913fc78e13c13dc34358f915fb3",
      "blockNumber": "0x51d376",
      "from": "0x0bD654d08C5e0e5646096957acF5f8fb186F58Bd",
      "to": "0xC3A5cF24584d3a06360285B88a8f5582A1FC1158",
      "cumulativeGasUsed": "0x551f94",
      "gasUsed": "0x6c6b",
      "contractAddress": null,
      "logs": [
        {
          "address": "0xC3A5cF24584d3a06360285B88a8f5582A1FC1158",
          "topics": [
            "0x2f8debb872680d5f03e460171e10e014d661f159c5936f0067190f9e46e87a34"
          ],
          "data": "0x000000000000000000000000000000000000000000000000000000000000001e0000000000000000000000000000000000000000000000000000000000000001",
          "blockHash": "0x5b6562c37a4a27f042f576f425f10285dbcc0913fc78e13c13dc34358f915fb3",
          "blockNumber": "0x51d376",
          "transactionHash": "0x70371713a1801ca9e64dbac7d5f80e372bc4e853144243c4542234731f04cd95",
          "transactionIndex": "0x3c",
          "logIndex": "0x60",
          "removed": false
        }
      ],
      "status": "0x1",
      "logsBloom": "0x00000002000000000000000000000000000000000000000000000000000000000000000000000000000000000000000000000000000000000000000000000000000000000000000000000000000000000000000000001000000000000000000020060000000000000000000000000000000000000000000000000000000000000000000000000000000000000000000000000000000000000000000000000000000000000000000000000000000000000000000000000000000000000000000000000000000000000000040000000000000000000000000000000000000000000000000000000000000000000000000000000000000000000000000000000000",
      "type": "0x2",
      "effectiveGasPrice": "0x24bfa46bc"
    },
    {
      "transactionHash": "0xc842ec1041e2967f81646578c3f7d49dd129fdcd1d0bf069e7c8201ebe903928",
      "transactionIndex": "0x2c",
      "blockHash": "0x3ece89260946cc98ebf0758d8ea827a2fc18ceaa382fb44f5a533f507ca83319",
      "blockNumber": "0x51d377",
      "from": "0x26750470f82Ba05892fb0088ebE48b1E19d30514",
      "to": "0xC3A5cF24584d3a06360285B88a8f5582A1FC1158",
      "cumulativeGasUsed": "0x38827d",
      "gasUsed": "0x6c6b",
      "contractAddress": null,
      "logs": [
        {
          "address": "0xC3A5cF24584d3a06360285B88a8f5582A1FC1158",
          "topics": [
            "0x2f8debb872680d5f03e460171e10e014d661f159c5936f0067190f9e46e87a34"
          ],
          "data": "0x000000000000000000000000000000000000000000000000000000000000000a0000000000000000000000000000000000000000000000000000000000000002",
          "blockHash": "0x3ece89260946cc98ebf0758d8ea827a2fc18ceaa382fb44f5a533f507ca83319",
          "blockNumber": "0x51d377",
          "transactionHash": "0xc842ec1041e2967f81646578c3f7d49dd129fdcd1d0bf069e7c8201ebe903928",
          "transactionIndex": "0x2c",
          "logIndex": "0x3a",
          "removed": false
        }
      ],
      "status": "0x1",
      "logsBloom": "0x00000002000000000000000000000000000000000000000000000000000000000000000000000000000000000000000000000000000000000000000000000000000000000000000000000000000000000000000000001000000000000000000020060000000000000000000000000000000000000000000000000000000000000000000000000000000000000000000000000000000000000000000000000000000000000000000000000000000000000000000000000000000000000000000000000000000000000000040000000000000000000000000000000000000000000000000000000000000000000000000000000000000000000000000000000000",
      "type": "0x2",
      "effectiveGasPrice": "0x2433f2569"
    },
    {
      "transactionHash": "0xc8d8efc04774ca6501f55052487c00eb7a1d41f815a089dcf8941b145e06e6e1",
      "transactionIndex": "0x63",
      "blockHash": "0xc3ea9971fa16d596f7d56bd1c794dda5cead47b5ac33cd6d35abf313010d6f8f",
      "blockNumber": "0x51d378",
      "from": "0x26750470f82Ba05892fb0088ebE48b1E19d30514",
      "to": "0xC3A5cF24584d3a06360285B88a8f5582A1FC1158",
      "cumulativeGasUsed": "0x8f7788",
      "gasUsed": "0x6c6b",
      "contractAddress": null,
      "logs": [
        {
          "address": "0xC3A5cF24584d3a06360285B88a8f5582A1FC1158",
          "topics": [
            "0x2f8debb872680d5f03e460171e10e014d661f159c5936f0067190f9e46e87a34"
          ],
          "data": "0x000000000000000000000000000000000000000000000000000000000000001e0000000000000000000000000000000000000000000000000000000000000002",
          "blockHash": "0xc3ea9971fa16d596f7d56bd1c794dda5cead47b5ac33cd6d35abf313010d6f8f",
          "blockNumber": "0x51d378",
          "transactionHash": "0xc8d8efc04774ca6501f55052487c00eb7a1d41f815a089dcf8941b145e06e6e1",
          "transactionIndex": "0x63",
          "logIndex": "0xa0",
          "removed": false
        }
      ],
      "status": "0x1",
      "logsBloom": "0x00000002000000000000000000000000000000000000000000000000000000000000000000000000000000000000000000000000000000000000000000000000000000000000000000000000000000000000000000001000000000000000000020060000000000000000000000000000000000000000000000000000000000000000000000000000000000000000000000000000000000000000000000000000000000000000000000000000000000000000000000000000000000000000000000000000000000000000040000000000000000000000000000000000000000000000000000000000000000000000000000000000000000000000000000000000",
      "type": "0x2",
      "effectiveGasPrice": "0x22d2d3273"
    },
    {
      "transactionHash": "0x8de2fea4314020f12da68d2a04d403b2939a9973abfc26213b327b094bf60556",
      "transactionIndex": "0x37",
      "blockHash": "0x4d134ebbae0d29e90e43223386979679ac78cd9f7941881330c852c0f5994623",
      "blockNumber": "0x51d379",
      "from": "0xD3Cb539Dbe80cFaEdfE6411727ff2D3d9953Ee36",
      "to": "0xC3A5cF24584d3a06360285B88a8f5582A1FC1158",
      "cumulativeGasUsed": "0x522848",
      "gasUsed": "0x6c6b",
      "contractAddress": null,
      "logs": [
        {
          "address": "0xC3A5cF24584d3a06360285B88a8f5582A1FC1158",
          "topics": [
            "0x2f8debb872680d5f03e460171e10e014d661f159c5936f0067190f9e46e87a34"
          ],
          "data": "0x000000000000000000000000000000000000000000000000000000000000000a0000000000000000000000000000000000000000000000000000000000000003",
          "blockHash": "0x4d134ebbae0d29e90e43223386979679ac78cd9f7941881330c852c0f5994623",
          "blockNumber": "0x51d379",
          "transactionHash": "0x8de2fea4314020f12da68d2a04d403b2939a9973abfc26213b327b094bf60556",
          "transactionIndex": "0x37",
          "logIndex": "0x61",
          "removed": false
        }
      ],
      "status": "0x1",
      "logsBloom": "0x00000002000000000000000000000000000000000000000000000000000000000000000000000000000000000000000000000000000000000000000000000000000000000000000000000000000000000000000000001000000000000000000020060000000000000000000000000000000000000000000000000000000000000000000000000000000000000000000000000000000000000000000000000000000000000000000000000000000000000000000000000000000000000000000000000000000000000000040000000000000000000000000000000000000000000000000000000000000000000000000000000000000000000000000000000000",
      "type": "0x2",
      "effectiveGasPrice": "0x233b07560"
    },
    {
      "transactionHash": "0xae6441cbe725abf3ae7d6674bff5a97a63e309cff25ee7271f05f9e96ab236af",
      "transactionIndex": "0x4f",
      "blockHash": "0xa7eba33ec3d26e499fd0feede0cae337c32183394f343cccf309e81d8f475942",
      "blockNumber": "0x51d37a",
      "from": "0xD3Cb539Dbe80cFaEdfE6411727ff2D3d9953Ee36",
      "to": "0xC3A5cF24584d3a06360285B88a8f5582A1FC1158",
      "cumulativeGasUsed": "0x95f5fa",
      "gasUsed": "0x6c6b",
      "contractAddress": null,
      "logs": [
        {
          "address": "0xC3A5cF24584d3a06360285B88a8f5582A1FC1158",
          "topics": [
            "0x2f8debb872680d5f03e460171e10e014d661f159c5936f0067190f9e46e87a34"
          ],
          "data": "0x00000000000000000000000000000000000000000000000000000000000000140000000000000000000000000000000000000000000000000000000000000003",
          "blockHash": "0xa7eba33ec3d26e499fd0feede0cae337c32183394f343cccf309e81d8f475942",
          "blockNumber": "0x51d37a",
          "transactionHash": "0xae6441cbe725abf3ae7d6674bff5a97a63e309cff25ee7271f05f9e96ab236af",
          "transactionIndex": "0x4f",
          "logIndex": "0xa1",
          "removed": false
        }
      ],
      "status": "0x1",
      "logsBloom": "0x00000002000000000000000000000000000000000000000000000000000000000000000000000000000000000000000000000000000000000000000000000000000000000000000000000000000000000000000000001000000000000000000020060000000000000000000000000000000000000000000000000000000000000000000000000000000000000000000000000000000000000000000000000000000000000000000000000000000000000000000000000000000000000000000000000000000000000000040000000000000000000000000000000000000000000000000000000000000000000000000000000000000000000000000000000000",
      "type": "0x2",
      "effectiveGasPrice": "0x224a69fa4"
    },
    {
      "transactionHash": "0x97646e4b516b3394f5ad0cddbe26a8cc5682dbf467870fc48725c591cc111722",
      "transactionIndex": "0x3d",
      "blockHash": "0x4fb31296dc9b2fbc98bf51337c72b76e35a027942efcbbca34716b19917acd4f",
      "blockNumber": "0x51d37b",
      "from": "0x0bD654d08C5e0e5646096957acF5f8fb186F58Bd",
      "to": "0xC3A5cF24584d3a06360285B88a8f5582A1FC1158",
      "cumulativeGasUsed": "0x546a7c",
      "gasUsed": "0x6e34",
      "contractAddress": null,
      "logs": [
        {
          "address": "0xC3A5cF24584d3a06360285B88a8f5582A1FC1158",
          "topics": [
            "0x2d970ff6ae1d156918c14fae8889baeee8d411dcce8f2f6a8809deaae183eaf9"
          ],
          "data": "0x000000000000000000000000000000000000000000000000000000000000000a000000000000000000000000000000000000000000000000000000000000000200000000000000000000000000000000000000000000000000000000000000c8",
          "blockHash": "0x4fb31296dc9b2fbc98bf51337c72b76e35a027942efcbbca34716b19917acd4f",
          "blockNumber": "0x51d37b",
          "transactionHash": "0x97646e4b516b3394f5ad0cddbe26a8cc5682dbf467870fc48725c591cc111722",
          "transactionIndex": "0x3d",
          "logIndex": "0x5b",
          "removed": false
        }
      ],
      "status": "0x1",
      "logsBloom": "0x00000000000000000000000000000000000000000000000000000000000000000000000000000000000000000000000000000000000000000000000000000000000000000000000000000000000000000000000000000000000000000000000020040000000000000000000000000000000000000000000000000000000000000000000000000000000000000000000000000000000000000000000000000000000000000000000000000000000000000000000000000000000000000000000000000000000000000000040000000000000000000000000000000000000000000000008000000000000000000000000008000000000001000000000000000000",
      "type": "0x2",
      "effectiveGasPrice": "0x21d12cd45"
    },
    {
      "transactionHash": "0x874c3e5c13f680ad3426aa0dddee684ee606c6afab11a132e3e0819b70362a0d",
      "transactionIndex": "0x49",
      "blockHash": "0x53bf1274eef0abc19f0f5ad91bafb5930b10e2231c3d0ff9026aff72b7be72d8",
      "blockNumber": "0x51d37c",
      "from": "0x0bD654d08C5e0e5646096957acF5f8fb186F58Bd",
      "to": "0xC3A5cF24584d3a06360285B88a8f5582A1FC1158",
      "cumulativeGasUsed": "0x73c6a4",
      "gasUsed": "0x6e40",
      "contractAddress": null,
      "logs": [
        {
          "address": "0xC3A5cF24584d3a06360285B88a8f5582A1FC1158",
          "topics": [
            "0x2d970ff6ae1d156918c14fae8889baeee8d411dcce8f2f6a8809deaae183eaf9"
          ],
          "data": "0x000000000000000000000000000000000000000000000000000000000000000a0000000000000000000000000000000000000000000000000000000000000003000000000000000000000000000000000000000000000000000000000000012c",
          "blockHash": "0x53bf1274eef0abc19f0f5ad91bafb5930b10e2231c3d0ff9026aff72b7be72d8",
          "blockNumber": "0x51d37c",
          "transactionHash": "0x874c3e5c13f680ad3426aa0dddee684ee606c6afab11a132e3e0819b70362a0d",
          "transactionIndex": "0x49",
          "logIndex": "0x84",
          "removed": false
        }
      ],
      "status": "0x1",
      "logsBloom": "0x00000000000000000000000000000000000000000000000000000000000000000000000000000000000000000000000000000000000000000000000000000000000000000000000000000000000000000000000000000000000000000000000020040000000000000000000000000000000000000000000000000000000000000000000000000000000000000000000000000000000000000000000000000000000000000000000000000000000000000000000000000000000000000000000000000000000000000000040000000000000000000000000000000000000000000000008000000000000000000000000008000000000001000000000000000000",
      "type": "0x2",
      "effectiveGasPrice": "0x21352b64c"
    },
    {
      "transactionHash": "0x07762dc2a0e859eada7bffe3d976e5323b43ec3cbd49efcc27b971633485b03b",
      "transactionIndex": "0x3c",
      "blockHash": "0x9dd9246d55907669b631ff4ea2853cae8160c2b5b560d767f7f55a077645851f",
      "blockNumber": "0x51d37d",
      "from": "0x26750470f82Ba05892fb0088ebE48b1E19d30514",
      "to": "0xC3A5cF24584d3a06360285B88a8f5582A1FC1158",
      "cumulativeGasUsed": "0x5f9b25",
      "gasUsed": "0x6e34",
      "contractAddress": null,
      "logs": [
        {
          "address": "0xC3A5cF24584d3a06360285B88a8f5582A1FC1158",
          "topics": [
            "0x2d970ff6ae1d156918c14fae8889baeee8d411dcce8f2f6a8809deaae183eaf9"
          ],
          "data": "0x000000000000000000000000000000000000000000000000000000000000001400000000000000000000000000000000000000000000000000000000000000010000000000000000000000000000000000000000000000000000000000000064",
          "blockHash": "0x9dd9246d55907669b631ff4ea2853cae8160c2b5b560d767f7f55a077645851f",
          "blockNumber": "0x51d37d",
          "transactionHash": "0x07762dc2a0e859eada7bffe3d976e5323b43ec3cbd49efcc27b971633485b03b",
          "transactionIndex": "0x3c",
          "logIndex": "0x65",
          "removed": false
        }
      ],
      "status": "0x1",
      "logsBloom": "0x00000000000000000000000000000000000000000000000000000000000000000000000000000000000000000000000000000000000000000000000000000000000000000000000000000000000000000000000000000000000000000000000020040000000000000000000000000000000000000000000000000000000000000000000000000000000000000000000000000000000000000000000000000000000000000000000000000000000000000000000000000000000000000000000000000000000000000000040000000000000000000000000000000000000000000000008000000000000000000000000008000000000001000000000000000000",
      "type": "0x2",
      "effectiveGasPrice": "0x20e655d30"
    },
    {
      "transactionHash": "0x58003b8107f3f17de5a7012967292f1d768511bff6bad24e4a5ee32d6acb7e54",
      "transactionIndex": "0x74",
      "blockHash": "0x11bfd2aa7682b1dd828d803bd2f9882a453d97d90d160c7604cb79104f7ec9f4",
      "blockNumber": "0x51d37e",
      "from": "0x26750470f82Ba05892fb0088ebE48b1E19d30514",
      "to": "0xC3A5cF24584d3a06360285B88a8f5582A1FC1158",
      "cumulativeGasUsed": "0xc79ead",
      "gasUsed": "0x6e40",
      "contractAddress": null,
      "logs": [
        {
          "address": "0xC3A5cF24584d3a06360285B88a8f5582A1FC1158",
          "topics": [
            "0x2d970ff6ae1d156918c14fae8889baeee8d411dcce8f2f6a8809deaae183eaf9"
          ],
          "data": "0x00000000000000000000000000000000000000000000000000000000000000140000000000000000000000000000000000000000000000000000000000000003000000000000000000000000000000000000000000000000000000000000012c",
          "blockHash": "0x11bfd2aa7682b1dd828d803bd2f9882a453d97d90d160c7604cb79104f7ec9f4",
          "blockNumber": "0x51d37e",
          "transactionHash": "0x58003b8107f3f17de5a7012967292f1d768511bff6bad24e4a5ee32d6acb7e54",
          "transactionIndex": "0x74",
          "logIndex": "0xf6",
          "removed": false
        }
      ],
      "status": "0x1",
      "logsBloom": "0x00000000000000000000000000000000000000000000000000000000000000000000000000000000000000000000000000000000000000000000000000000000000000000000000000000000000000000000000000000000000000000000000020040000000000000000000000000000000000000000000000000000000000000000000000000000000000000000000000000000000000000000000000000000000000000000000000000000000000000000000000000000000000000000000000000000000000000000040000000000000000000000000000000000000000000000008000000000000000000000000008000000000001000000000000000000",
      "type": "0x2",
      "effectiveGasPrice": "0x2041c37e5"
    },
    {
      "transactionHash": "0x499cd8c838dd093733a91e8a41a1d6ca33feed88fbe455928d02bc61a99f681a",
      "transactionIndex": "0x3d",
      "blockHash": "0x69766de1ccbe75ea8429ad9e68eeb6d3d408b38794e6c6482f1d27b7dc7af7cf",
      "blockNumber": "0x51d37f",
      "from": "0xD3Cb539Dbe80cFaEdfE6411727ff2D3d9953Ee36",
      "to": "0xC3A5cF24584d3a06360285B88a8f5582A1FC1158",
      "cumulativeGasUsed": "0x61f8f3",
      "gasUsed": "0x6e34",
      "contractAddress": null,
      "logs": [
        {
          "address": "0xC3A5cF24584d3a06360285B88a8f5582A1FC1158",
          "topics": [
            "0x2d970ff6ae1d156918c14fae8889baeee8d411dcce8f2f6a8809deaae183eaf9"
          ],
          "data": "0x000000000000000000000000000000000000000000000000000000000000001e00000000000000000000000000000000000000000000000000000000000000010000000000000000000000000000000000000000000000000000000000000064",
          "blockHash": "0x69766de1ccbe75ea8429ad9e68eeb6d3d408b38794e6c6482f1d27b7dc7af7cf",
          "blockNumber": "0x51d37f",
          "transactionHash": "0x499cd8c838dd093733a91e8a41a1d6ca33feed88fbe455928d02bc61a99f681a",
          "transactionIndex": "0x3d",
          "logIndex": "0x71",
          "removed": false
        }
      ],
      "status": "0x1",
      "logsBloom": "0x00000000000000000000000000000000000000000000000000000000000000000000000000000000000000000000000000000000000000000000000000000000000000000000000000000000000000000000000000000000000000000000000020040000000000000000000000000000000000000000000000000000000000000000000000000000000000000000000000000000000000000000000000000000000000000000000000000000000000000000000000000000000000000000000000000000000000000000040000000000000000000000000000000000000000000000008000000000000000000000000008000000000001000000000000000000",
      "type": "0x2",
      "effectiveGasPrice": "0x224a8f421"
    },
    {
      "transactionHash": "0x49b7658133fc0252431d3a94713dc7d5ce8f9d7f8badcb69da39d5358b5c82d5",
      "transactionIndex": "0x45",
      "blockHash": "0xe35d3cb76c72957adc178417779987ce4c500aae67317ea76787c3906c1c7a29",
      "blockNumber": "0x51d380",
      "from": "0xD3Cb539Dbe80cFaEdfE6411727ff2D3d9953Ee36",
      "to": "0xC3A5cF24584d3a06360285B88a8f5582A1FC1158",
      "cumulativeGasUsed": "0x7c58d5",
      "gasUsed": "0x6e34",
      "contractAddress": null,
      "logs": [
        {
          "address": "0xC3A5cF24584d3a06360285B88a8f5582A1FC1158",
          "topics": [
            "0x2d970ff6ae1d156918c14fae8889baeee8d411dcce8f2f6a8809deaae183eaf9"
          ],
          "data": "0x000000000000000000000000000000000000000000000000000000000000001e000000000000000000000000000000000000000000000000000000000000000200000000000000000000000000000000000000000000000000000000000000c8",
          "blockHash": "0xe35d3cb76c72957adc178417779987ce4c500aae67317ea76787c3906c1c7a29",
          "blockNumber": "0x51d380",
          "transactionHash": "0x49b7658133fc0252431d3a94713dc7d5ce8f9d7f8badcb69da39d5358b5c82d5",
          "transactionIndex": "0x45",
          "logIndex": "0x98",
          "removed": false
        }
      ],
      "status": "0x1",
      "logsBloom": "0x00000000000000000000000000000000000000000000000000000000000000000000000000000000000000000000000000000000000000000000000000000000000000000000000000000000000000000000000000000000000000000000000020040000000000000000000000000000000000000000000000000000000000000000000000000000000000000000000000000000000000000000000000000000000000000000000000000000000000000000000000000000000000000000000000000000000000000000040000000000000000000000000000000000000000000000008000000000000000000000000008000000000001000000000000000000",
      "type": "0x2",
      "effectiveGasPrice": "0x21a730efe"
    },
    {
      "transactionHash": "0x334fa64def9af229e9ebd32a80153dc3db3a808011467852c75f4de20cd5488e",
      "transactionIndex": "0x3e",
      "blockHash": "0xfd331c520ac765c355bd56ba988605457f957defb2c63683929a0dbcc5b51b8e",
      "blockNumber": "0x51d381",
      "from": "0x0bD654d08C5e0e5646096957acF5f8fb186F58Bd",
      "to": "0xC3A5cF24584d3a06360285B88a8f5582A1FC1158",
      "cumulativeGasUsed": "0x62c55f",
      "gasUsed": "0xaec3",
      "contractAddress": null,
      "logs": [
        {
          "address": "0xC3A5cF24584d3a06360285B88a8f5582A1FC1158",
          "topics": [
            "0x44f1b4036532f2e2d709a25bd86f95d1432d588911edaf1672eb249bd393f2be"
          ],
          "data": "0x0000000000000000000000000000000000000000000000000000000000000001",
          "blockHash": "0xfd331c520ac765c355bd56ba988605457f957defb2c63683929a0dbcc5b51b8e",
          "blockNumber": "0x51d381",
          "transactionHash": "0x334fa64def9af229e9ebd32a80153dc3db3a808011467852c75f4de20cd5488e",
          "transactionIndex": "0x3e",
          "logIndex": "0x76",
          "removed": false
        }
      ],
      "status": "0x1",
      "logsBloom": "0x00000000000000000000000000000000000000000000000000000000000000000000000000000000000000000000000000000000000000000000000000000000000000000000000000000000000000000400000000000000000000000000000020040000000000000000000000000000000000000000000000000000000000000000000000000000000000000000000000100000000000000000000000000000000000000000000000000000000000000000000000000000000000000000000000000000000000000000040000000000000000000000000000000000000000000000000000000000000000000000000000000000000000000000000000000002",
      "type": "0x2",
      "effectiveGasPrice": "0x21505c57c"
    },
    {
      "transactionHash": "0x3e58a104c443a896209bb22a0f60b1e573ef19e2ee8fe6b108293fea0025b6a4",
      "transactionIndex": "0x3c",
      "blockHash": "0x96d79aecd2f1f33adbb53c3deebde5be33ff5d8d513023c66f9928bee7b7b088",
      "blockNumber": "0x51d382",
      "from": "0x0bD654d08C5e0e5646096957acF5f8fb186F58Bd",
      "to": "0xC3A5cF24584d3a06360285B88a8f5582A1FC1158",
      "cumulativeGasUsed": "0x83a42e",
      "gasUsed": "0xaec3",
      "contractAddress": null,
      "logs": [
        {
          "address": "0xC3A5cF24584d3a06360285B88a8f5582A1FC1158",
          "topics": [
            "0x44f1b4036532f2e2d709a25bd86f95d1432d588911edaf1672eb249bd393f2be"
          ],
          "data": "0x0000000000000000000000000000000000000000000000000000000000000002",
          "blockHash": "0x96d79aecd2f1f33adbb53c3deebde5be33ff5d8d513023c66f9928bee7b7b088",
          "blockNumber": "0x51d382",
          "transactionHash": "0x3e58a104c443a896209bb22a0f60b1e573ef19e2ee8fe6b108293fea0025b6a4",
          "transactionIndex": "0x3c",
          "logIndex": "0xa2",
          "removed": false
        }
      ],
      "status": "0x1",
      "logsBloom": "0x00000000000000000000000000000000000000000000000000000000000000000000000000000000000000000000000000000000000000000000000000000000000000000000000000000000000000000400000000000000000000000000000020040000000000000000000000000000000000000000000000000000000000000000000000000000000000000000000000100000000000000000000000000000000000000000000000000000000000000000000000000000000000000000000000000000000000000000040000000000000000000000000000000000000000000000000000000000000000000000000000000000000000000000000000000002",
      "type": "0x2",
      "effectiveGasPrice": "0x21f7d135c"
    },
    {
      "transactionHash": "0xbd1a776165ade308041261c0f287298b72c117076ac9a3f10137d6f4c6f3e055",
      "transactionIndex": "0x4c",
      "blockHash": "0x9ff9ef2399aeb5ce48509965e928ff0a94906d29442eecdbfa41b959f7733c00",
      "blockNumber": "0x51d383",
      "from": "0x0bD654d08C5e0e5646096957acF5f8fb186F58Bd",
      "to": "0xC3A5cF24584d3a06360285B88a8f5582A1FC1158",
      "cumulativeGasUsed": "0x7ec95a",
      "gasUsed": "0x6c71",
      "contractAddress": null,
      "logs": [
        {
          "address": "0xC3A5cF24584d3a06360285B88a8f5582A1FC1158",
          "topics": [
            "0x846f90b8feb5beb6d07ea3a184b631af357d5ae183ad07f0279fcc47df1ac658"
          ],
          "data": "0x0000000000000000000000000000000000000000000000000000000000000001000000000000000000000000000000000000000000000000000000000000000a",
          "blockHash": "0x9ff9ef2399aeb5ce48509965e928ff0a94906d29442eecdbfa41b959f7733c00",
          "blockNumber": "0x51d383",
          "transactionHash": "0xbd1a776165ade308041261c0f287298b72c117076ac9a3f10137d6f4c6f3e055",
          "transactionIndex": "0x4c",
          "logIndex": "0x99",
          "removed": false
        }
      ],
      "status": "0x1",
      "logsBloom": "0x00000000000000000100000000000000000000000000000000000000000000000000000000000000000000000000000000000000000000000000000000000000000000000000000000000000000000000000000000000000000000000000000020040000000000000000000000000000000000000000000000000000000000000000000000000000000000000000000000000000000000000000000000000000000000000000000000000000000000000000000000000000000000000000000000000000000000000000040000000000000000000000000000000000020000000000000000000000000000000000000000000008000000000000000000000000",
      "type": "0x2",
      "effectiveGasPrice": "0x215d11bd3"
    },
    {
      "transactionHash": "0x146b109846d0dd6f0059b793d7919759ed0eb70530c91d238112ab37247f548b",
      "transactionIndex": "0x56",
      "blockHash": "0x30b59931ace89306d8283b7e99996941d3bd9f98db66ae4fe7cb868f481174f3",
      "blockNumber": "0x51d385",
      "from": "0x26750470f82Ba05892fb0088ebE48b1E19d30514",
      "to": "0xC3A5cF24584d3a06360285B88a8f5582A1FC1158",
      "cumulativeGasUsed": "0x8be2fc",
      "gasUsed": "0x6c71",
      "contractAddress": null,
      "logs": [
        {
          "address": "0xC3A5cF24584d3a06360285B88a8f5582A1FC1158",
          "topics": [
            "0x846f90b8feb5beb6d07ea3a184b631af357d5ae183ad07f0279fcc47df1ac658"
          ],
          "data": "0x00000000000000000000000000000000000000000000000000000000000000010000000000000000000000000000000000000000000000000000000000000014",
          "blockHash": "0x30b59931ace89306d8283b7e99996941d3bd9f98db66ae4fe7cb868f481174f3",
          "blockNumber": "0x51d385",
          "transactionHash": "0x146b109846d0dd6f0059b793d7919759ed0eb70530c91d238112ab37247f548b",
          "transactionIndex": "0x56",
          "logIndex": "0xad",
          "removed": false
        }
      ],
      "status": "0x1",
      "logsBloom": "0x00000000000000000100000000000000000000000000000000000000000000000000000000000000000000000000000000000000000000000000000000000000000000000000000000000000000000000000000000000000000000000000000020040000000000000000000000000000000000000000000000000000000000000000000000000000000000000000000000000000000000000000000000000000000000000000000000000000000000000000000000000000000000000000000000000000000000000000040000000000000000000000000000000000020000000000000000000000000000000000000000000008000000000000000000000000",
      "type": "0x2",
      "effectiveGasPrice": "0x21df9971e"
    },
    {
      "transactionHash": "0x71e5ec80e4b41c9449c1ade8efd91bfe59aae6b85b7da6a2c8441fa5719def83",
      "transactionIndex": "0x30",
      "blockHash": "0xab216b58509fb9e54c8e4441ea1a60d297d22e0e0d8fbd6918774a80d7cacc9d",
      "blockNumber": "0x51d386",
      "from": "0xD3Cb539Dbe80cFaEdfE6411727ff2D3d9953Ee36",
      "to": "0xC3A5cF24584d3a06360285B88a8f5582A1FC1158",
      "cumulativeGasUsed": "0x44eabe",
      "gasUsed": "0x6c71",
      "contractAddress": null,
      "logs": [
        {
          "address": "0xC3A5cF24584d3a06360285B88a8f5582A1FC1158",
          "topics": [
            "0x846f90b8feb5beb6d07ea3a184b631af357d5ae183ad07f0279fcc47df1ac658"
          ],
          "data": "0x0000000000000000000000000000000000000000000000000000000000000002000000000000000000000000000000000000000000000000000000000000001e",
          "blockHash": "0xab216b58509fb9e54c8e4441ea1a60d297d22e0e0d8fbd6918774a80d7cacc9d",
          "blockNumber": "0x51d386",
          "transactionHash": "0x71e5ec80e4b41c9449c1ade8efd91bfe59aae6b85b7da6a2c8441fa5719def83",
          "transactionIndex": "0x30",
          "logIndex": "0x4b",
          "removed": false
        }
      ],
      "status": "0x1",
      "logsBloom": "0x00000000000000000100000000000000000000000000000000000000000000000000000000000000000000000000000000000000000000000000000000000000000000000000000000000000000000000000000000000000000000000000000020040000000000000000000000000000000000000000000000000000000000000000000000000000000000000000000000000000000000000000000000000000000000000000000000000000000000000000000000000000000000000000000000000000000000000000040000000000000000000000000000000000020000000000000000000000000000000000000000000008000000000000000000000000",
      "type": "0x2",
      "effectiveGasPrice": "0x22702260a"
    },
    {
      "transactionHash": "0x8a5a699fa7564c34554503a835b6d62019034d46e480da1eb17e1ec969342b33",
      "transactionIndex": "0x50",
      "blockHash": "0x48e6d65e92fdbe37b0d57afb0c14ab3fb7b676919cd85b257c612cb9f7cb2aa9",
      "blockNumber": "0x51d387",
      "from": "0x0bD654d08C5e0e5646096957acF5f8fb186F58Bd",
      "to": "0xC3A5cF24584d3a06360285B88a8f5582A1FC1158",
      "cumulativeGasUsed": "0x6d7ae4",
      "gasUsed": "0xbb9e",
      "contractAddress": null,
      "logs": [
        {
          "address": "0xC3A5cF24584d3a06360285B88a8f5582A1FC1158",
          "topics": [
            "0x65604a09599e4bbb64b6bcc5687d024dd31286e436a7afcee318381b2aeb3fc4"
          ],
          "data": "0x00000000000000000000000000000000000000000000000000000000000000010000000000000000000000005b73c5498c1e3b4dba84de0f1833c4a029d90519",
          "blockHash": "0x48e6d65e92fdbe37b0d57afb0c14ab3fb7b676919cd85b257c612cb9f7cb2aa9",
          "blockNumber": "0x51d387",
          "transactionHash": "0x8a5a699fa7564c34554503a835b6d62019034d46e480da1eb17e1ec969342b33",
          "transactionIndex": "0x50",
          "logIndex": "0x79",
          "removed": false
        }
      ],
      "status": "0x1",
      "logsBloom": "0x00000000000000000000000000000000000000000000000000000000000000000000000000000000000000000000000000000000000000000000000000000000000000000000000000000000000000000000000000000000000000000000000020040000000000000400000000000000000000000000000000000000000000000000000000000000000000000000000000000000000000000000000000000000000000000000000000000000000000000000000000000000000000000000000000000000000000000000040000000000000000000000000000000000000000008000000000000000000000000000000000000100000000000000000000000000",
      "type": "0x2",
      "effectiveGasPrice": "0x21b27e43c"
    },
    {
      "transactionHash": "0xbef81e59954b23016e9027a14fff99e0be961af18d7a48389b82d39439dee70a",
      "transactionIndex": "0x36",
      "blockHash": "0xae79058c3a7d2ddf55b0cc0e644c13dd08c1c071af05408df92d7e51e1491ac5",
      "blockNumber": "0x51d388",
      "from": "0x26750470f82Ba05892fb0088ebE48b1E19d30514",
      "to": "0xC3A5cF24584d3a06360285B88a8f5582A1FC1158",
      "cumulativeGasUsed": "0x57ecfe",
      "gasUsed": "0xbb9e",
      "contractAddress": null,
      "logs": [
        {
          "address": "0xC3A5cF24584d3a06360285B88a8f5582A1FC1158",
          "topics": [
            "0x65604a09599e4bbb64b6bcc5687d024dd31286e436a7afcee318381b2aeb3fc4"
          ],
          "data": "0x00000000000000000000000000000000000000000000000000000000000000020000000000000000000000005b73c5498c1e3b4dba84de0f1833c4a029d90519",
          "blockHash": "0xae79058c3a7d2ddf55b0cc0e644c13dd08c1c071af05408df92d7e51e1491ac5",
          "blockNumber": "0x51d388",
          "transactionHash": "0xbef81e59954b23016e9027a14fff99e0be961af18d7a48389b82d39439dee70a",
          "transactionIndex": "0x36",
          "logIndex": "0x67",
          "removed": false
        }
      ],
      "status": "0x1",
      "logsBloom": "0x00000000000000000000000000000000000000000000000000000000000000000000000000000000000000000000000000000000000000000000000000000000000000000000000000000000000000000000000000000000000000000000000020040000000000000400000000000000000000000000000000000000000000000000000000000000000000000000000000000000000000000000000000000000000000000000000000000000000000000000000000000000000000000000000000000000000000000000040000000000000000000000000000000000000000008000000000000000000000000000000000000100000000000000000000000000",
      "type": "0x2",
      "effectiveGasPrice": "0x21916f967"
    },
    {
      "transactionHash": "0x2b8105b9d5e15c1330bb60eba3287839d35286d562ea597e20ece9b154688089",
      "transactionIndex": "0x75",
      "blockHash": "0x9673b25ecc08415049cf7e3fa58ba60f752d0f17c25cfe0a3c06ccd193e986cf",
      "blockNumber": "0x51d389",
      "from": "0xD3Cb539Dbe80cFaEdfE6411727ff2D3d9953Ee36",
      "to": "0xC3A5cF24584d3a06360285B88a8f5582A1FC1158",
      "cumulativeGasUsed": "0xc53157",
      "gasUsed": "0xbb9e",
      "contractAddress": null,
      "logs": [
        {
          "address": "0xC3A5cF24584d3a06360285B88a8f5582A1FC1158",
          "topics": [
            "0x65604a09599e4bbb64b6bcc5687d024dd31286e436a7afcee318381b2aeb3fc4"
          ],
          "data": "0x00000000000000000000000000000000000000000000000000000000000000030000000000000000000000005b73c5498c1e3b4dba84de0f1833c4a029d90519",
          "blockHash": "0x9673b25ecc08415049cf7e3fa58ba60f752d0f17c25cfe0a3c06ccd193e986cf",
          "blockNumber": "0x51d389",
          "transactionHash": "0x2b8105b9d5e15c1330bb60eba3287839d35286d562ea597e20ece9b154688089",
          "transactionIndex": "0x75",
          "logIndex": "0xf9",
          "removed": false
        }
      ],
      "status": "0x1",
      "logsBloom": "0x00000000000000000000000000000000000000000000000000000000000000000000000000000000000000000000000000000000000000000000000000000000000000000000000000000000000000000000000000000000000000000000000020040000000000000400000000000000000000000000000000000000000000000000000000000000000000000000000000000000000000000000000000000000000000000000000000000000000000000000000000000000000000000000000000000000000000000000040000000000000000000000000000000000000000008000000000000000000000000000000000000100000000000000000000000000",
      "type": "0x2",
      "effectiveGasPrice": "0x20b4a58b3"
    }
  ],
  "libraries": [],
  "pending": [],
  "returns": {},
  "timestamp": 1708893834,
  "chain": 11155111,
  "multi": false,
  "commit": "4527de9"
}